{
	"schemaVersion": "2.0.0",
	"contractName": "MedianTestHelper",
	"compilerOutput": {
		"abi": [
			{
				"inputs": [
					{
						"internalType": "int256[]",
						"name": "list",
						"type": "int256[]"
					}
				],
				"name": "publicGet",
				"outputs": [
					{
						"internalType": "int256",
						"name": "",
						"type": "int256"
					}
				],
				"stateMutability": "pure",
				"type": "function"
			},
			{
				"inputs": [
					{
						"internalType": "int256[]",
						"name": "list",
						"type": "int256[]"
					},
					{
						"internalType": "uint256",
						"name": "k1",
						"type": "uint256"
					},
					{
						"internalType": "uint256",
						"name": "k2",
						"type": "uint256"
					}
				],
				"name": "publicQuickselectTwo",
				"outputs": [
					{
						"internalType": "int256",
						"name": "",
						"type": "int256"
					},
					{
						"internalType": "int256",
						"name": "",
						"type": "int256"
					}
				],
				"stateMutability": "pure",
				"type": "function"
			}
		],
		"devdoc": {
			"methods": {}
		},
		"evm": {
			"bytecode": {
				"linkReferences": {},
				"object": "0x608060405234801561001057600080fd5b50610cde806100206000396000f3fe608060405234801561001057600080fd5b50600436106100365760003560e01c80630fb75cff1461003b578063115efb2014610122575b600080fd5b6101056004803603606081101561005157600080fd5b810190808035906020019064010000000081111561006e57600080fd5b82018360208201111561008057600080fd5b803590602001918460208302840111640100000000831117156100a257600080fd5b919080806020026020016040519081016040528093929190818152602001838360200280828437600081840152601f19601f82011690508083019250505050505050919291929080359060200190929190803590602001909291905050506101ee565b604051808381526020018281526020019250505060405180910390f35b6101d86004803603602081101561013857600080fd5b810190808035906020019064010000000081111561015557600080fd5b82018360208201111561016757600080fd5b8035906020019184602083028401116401000000008311171561018957600080fd5b919080806020026020016040519081016040528093929190818152602001838360200280828437600081840152601f19601f82011690508083019250505050505050919291929050505061020f565b6040518082815260200191505060405180910390f35b60008061020385600060018851038787610221565b91509150935093915050565b600061021a8261030e565b9050919050565b60008082841061023057600080fd5b8386111580156102405750848411155b61024957600080fd5b8286111580156102595750848311155b61026257600080fd5b5b600115610303576007868603101561028b576102828787878787610328565b91509150610304565b600061029888888861089c565b90508084116102a9578095506102fd565b848110156102bc576001810196506102fc565b8085111580156102cb57508381105b6102d157fe5b6102dd88888388610993565b92506102ee88600183018887610993565b915082829250925050610304565b5b50610263565b5b9550959350505050565b600061032161031c83610a2d565b610ab5565b9050919050565b60008060008660018701039050600088600089018151811061034657fe5b60200260200101519050600082600110610380577f7fffffffffffffffffffffffffffffffffffffffffffffffffffffffffffffff610398565b8960018a018151811061038f57fe5b60200260200101515b90506000836002106103ca577f7fffffffffffffffffffffffffffffffffffffffffffffffffffffffffffffff6103e2565b8a60028b01815181106103d957fe5b60200260200101515b9050600084600310610414577f7fffffffffffffffffffffffffffffffffffffffffffffffffffffffffffffff61042c565b8b60038c018151811061042357fe5b60200260200101515b905060008560041061045e577f7fffffffffffffffffffffffffffffffffffffffffffffffffffffffffffffff610476565b8c60048d018151811061046d57fe5b60200260200101515b90506000866005106104a8577f7fffffffffffffffffffffffffffffffffffffffffffffffffffffffffffffff6104c0565b8d60058e01815181106104b757fe5b60200260200101515b90506000876006106104f2577f7fffffffffffffffffffffffffffffffffffffffffffffffffffffffffffffff61050a565b8e60068f018151811061050157fe5b60200260200101515b90508587131561051f57858780975081985050505b8385131561053257838580955081965050505b8183131561054557818380935081945050505b8487131561055857848780965081985050505b8386131561056b57838680955081975050505b8083131561057e57808380925081945050505b8486131561059157848680965081975050505b808213156105a457808280925081935050505b828713156105b757828780945081985050505b818613156105ca57818680935081975050505b808513156105dd57808580925081965050505b828613156105f057828680945081975050505b8084131561060357808480925081955050505b8285131561061657828580945081965050505b8184131561062957818480935081955050505b8284131561063c57828480945081955050505b60008e8d039050600081141561065457879a5061072e565b600181141561066557869a5061072d565b600281141561067657859a5061072c565b600381141561068757849a5061072b565b600481141561069857839a5061072a565b60058114156106a957829a50610729565b60068114156106ba57819a50610728565b6040517f08c379a00000000000000000000000000000000000000000000000000000000081526004018080602001828103825260108152602001807f6b31206f7574206f6620626f756e64730000000000000000000000000000000081525060200191505060405180910390fd5b5b5b5b5b5b5b60008f8d0390508c8e1415610752578b8c9b509b5050505050505050505050610892565b6000811415610770578b899b509b5050505050505050505050610892565b600181141561078e578b889b509b5050505050505050505050610892565b60028114156107ac578b879b509b5050505050505050505050610892565b60038114156107ca578b869b509b5050505050505050505050610892565b60048114156107e8578b859b509b5050505050505050505050610892565b6005811415610806578b849b509b5050505050505050505050610892565b6006811415610824578b839b509b5050505050505050505050610892565b6040517f08c379a00000000000000000000000000000000000000000000000000000000081526004018080602001828103825260108152602001807f6b32206f7574206f6620626f756e64730000000000000000000000000000000081525060200191505060405180910390fd5b9550959350505050565b600080846002848601816108ac57fe5b04815181106108b757fe5b602002602001015190506001840393506001830192505b60011561098a575b600184019350808585815181106108e957fe5b6020026020010151126108d6575b6001830392508085848151811061090a57fe5b6020026020010151136108f7578284101561097c5784838151811061092b57fe5b602002602001015185858151811061093f57fe5b602002602001015186868151811061095357fe5b6020026020010187868151811061096657fe5b6020026020010182815250828152505050610985565b8291505061098c565b6108ce565b505b9392505050565b6000818411156109a257600080fd5b828211156109af57600080fd5b5b82841015610a0e57600784840310156109e35760006109d28686868687610328565b809250819350505081915050610a25565b60006109f086868661089c565b9050808311610a0157809350610a08565b6001810194505b506109b0565b848481518110610a1a57fe5b602002602001015190505b949350505050565b6060808251604051908082528060200260200182016040528015610a605781602001602082028038833980820191505090505b50905060008090505b8351811015610aab57838181518110610a7e57fe5b6020026020010151828281518110610a9257fe5b6020026020010181815250508080600101915050610a69565b5080915050919050565b60008151600010610b2e576040517f08c379a00000000000000000000000000000000000000000000000000000000081526004018080602001828103825260168152602001807f6c697374206d757374206e6f7420626520656d7074790000000000000000000081525060200191505060405180910390fd5b600082519050600060028281610b4057fe5b049050600060028381610b4f57fe5b061415610b8a57600080610b6d866000600187036001870387610221565b8092508193505050610b7f8282610ba4565b945050505050610b9f565b610b9a8460006001850384610993565b925050505b919050565b6000806002808481610bb257fe5b0760028681610bbd57fe5b070181610bc657fe5b059050610bf0610bea60028681610bd957fe5b0560028681610be457fe5b05610bf9565b82610bf9565b91505092915050565b600080828401905060008312158015610c125750838112155b80610c285750600083128015610c2757508381125b5b610c7d576040517f08c379a0000000000000000000000000000000000000000000000000000000008152600401808060200182810382526021815260200180610c886021913960400191505060405180910390fd5b809150509291505056fe5369676e6564536166654d6174683a206164646974696f6e206f766572666c6f77a2646970667358221220bf317c844de1f2982518f02bae9435ed0b0cdb696cd45e7e41dafa7ceda70b6864736f6c63430006020033",
				"opcodes": "PUSH1 0x80 PUSH1 0x40 MSTORE CALLVALUE DUP1 ISZERO PUSH2 0x10 JUMPI PUSH1 0x0 DUP1 REVERT JUMPDEST POP PUSH2 0xCDE DUP1 PUSH2 0x20 PUSH1 0x0 CODECOPY PUSH1 0x0 RETURN INVALID PUSH1 0x80 PUSH1 0x40 MSTORE CALLVALUE DUP1 ISZERO PUSH2 0x10 JUMPI PUSH1 0x0 DUP1 REVERT JUMPDEST POP PUSH1 0x4 CALLDATASIZE LT PUSH2 0x36 JUMPI PUSH1 0x0 CALLDATALOAD PUSH1 0xE0 SHR DUP1 PUSH4 0xFB75CFF EQ PUSH2 0x3B JUMPI DUP1 PUSH4 0x115EFB20 EQ PUSH2 0x122 JUMPI JUMPDEST PUSH1 0x0 DUP1 REVERT JUMPDEST PUSH2 0x105 PUSH1 0x4 DUP1 CALLDATASIZE SUB PUSH1 0x60 DUP2 LT ISZERO PUSH2 0x51 JUMPI PUSH1 0x0 DUP1 REVERT JUMPDEST DUP2 ADD SWAP1 DUP1 DUP1 CALLDATALOAD SWAP1 PUSH1 0x20 ADD SWAP1 PUSH5 0x100000000 DUP2 GT ISZERO PUSH2 0x6E JUMPI PUSH1 0x0 DUP1 REVERT JUMPDEST DUP3 ADD DUP4 PUSH1 0x20 DUP3 ADD GT ISZERO PUSH2 0x80 JUMPI PUSH1 0x0 DUP1 REVERT JUMPDEST DUP1 CALLDATALOAD SWAP1 PUSH1 0x20 ADD SWAP2 DUP5 PUSH1 0x20 DUP4 MUL DUP5 ADD GT PUSH5 0x100000000 DUP4 GT OR ISZERO PUSH2 0xA2 JUMPI PUSH1 0x0 DUP1 REVERT JUMPDEST SWAP2 SWAP1 DUP1 DUP1 PUSH1 0x20 MUL PUSH1 0x20 ADD PUSH1 0x40 MLOAD SWAP1 DUP2 ADD PUSH1 0x40 MSTORE DUP1 SWAP4 SWAP3 SWAP2 SWAP1 DUP2 DUP2 MSTORE PUSH1 0x20 ADD DUP4 DUP4 PUSH1 0x20 MUL DUP1 DUP3 DUP5 CALLDATACOPY PUSH1 0x0 DUP2 DUP5 ADD MSTORE PUSH1 0x1F NOT PUSH1 0x1F DUP3 ADD AND SWAP1 POP DUP1 DUP4 ADD SWAP3 POP POP POP POP POP POP POP SWAP2 SWAP3 SWAP2 SWAP3 SWAP1 DUP1 CALLDATALOAD SWAP1 PUSH1 0x20 ADD SWAP1 SWAP3 SWAP2 SWAP1 DUP1 CALLDATALOAD SWAP1 PUSH1 0x20 ADD SWAP1 SWAP3 SWAP2 SWAP1 POP POP POP PUSH2 0x1EE JUMP JUMPDEST PUSH1 0x40 MLOAD DUP1 DUP4 DUP2 MSTORE PUSH1 0x20 ADD DUP3 DUP2 MSTORE PUSH1 0x20 ADD SWAP3 POP POP POP PUSH1 0x40 MLOAD DUP1 SWAP2 SUB SWAP1 RETURN JUMPDEST PUSH2 0x1D8 PUSH1 0x4 DUP1 CALLDATASIZE SUB PUSH1 0x20 DUP2 LT ISZERO PUSH2 0x138 JUMPI PUSH1 0x0 DUP1 REVERT JUMPDEST DUP2 ADD SWAP1 DUP1 DUP1 CALLDATALOAD SWAP1 PUSH1 0x20 ADD SWAP1 PUSH5 0x100000000 DUP2 GT ISZERO PUSH2 0x155 JUMPI PUSH1 0x0 DUP1 REVERT JUMPDEST DUP3 ADD DUP4 PUSH1 0x20 DUP3 ADD GT ISZERO PUSH2 0x167 JUMPI PUSH1 0x0 DUP1 REVERT JUMPDEST DUP1 CALLDATALOAD SWAP1 PUSH1 0x20 ADD SWAP2 DUP5 PUSH1 0x20 DUP4 MUL DUP5 ADD GT PUSH5 0x100000000 DUP4 GT OR ISZERO PUSH2 0x189 JUMPI PUSH1 0x0 DUP1 REVERT JUMPDEST SWAP2 SWAP1 DUP1 DUP1 PUSH1 0x20 MUL PUSH1 0x20 ADD PUSH1 0x40 MLOAD SWAP1 DUP2 ADD PUSH1 0x40 MSTORE DUP1 SWAP4 SWAP3 SWAP2 SWAP1 DUP2 DUP2 MSTORE PUSH1 0x20 ADD DUP4 DUP4 PUSH1 0x20 MUL DUP1 DUP3 DUP5 CALLDATACOPY PUSH1 0x0 DUP2 DUP5 ADD MSTORE PUSH1 0x1F NOT PUSH1 0x1F DUP3 ADD AND SWAP1 POP DUP1 DUP4 ADD SWAP3 POP POP POP POP POP POP POP SWAP2 SWAP3 SWAP2 SWAP3 SWAP1 POP POP POP PUSH2 0x20F JUMP JUMPDEST PUSH1 0x40 MLOAD DUP1 DUP3 DUP2 MSTORE PUSH1 0x20 ADD SWAP2 POP POP PUSH1 0x40 MLOAD DUP1 SWAP2 SUB SWAP1 RETURN JUMPDEST PUSH1 0x0 DUP1 PUSH2 0x203 DUP6 PUSH1 0x0 PUSH1 0x1 DUP9 MLOAD SUB DUP8 DUP8 PUSH2 0x221 JUMP JUMPDEST SWAP2 POP SWAP2 POP SWAP4 POP SWAP4 SWAP2 POP POP JUMP JUMPDEST PUSH1 0x0 PUSH2 0x21A DUP3 PUSH2 0x30E JUMP JUMPDEST SWAP1 POP SWAP2 SWAP1 POP JUMP JUMPDEST PUSH1 0x0 DUP1 DUP3 DUP5 LT PUSH2 0x230 JUMPI PUSH1 0x0 DUP1 REVERT JUMPDEST DUP4 DUP7 GT ISZERO DUP1 ISZERO PUSH2 0x240 JUMPI POP DUP5 DUP5 GT ISZERO JUMPDEST PUSH2 0x249 JUMPI PUSH1 0x0 DUP1 REVERT JUMPDEST DUP3 DUP7 GT ISZERO DUP1 ISZERO PUSH2 0x259 JUMPI POP DUP5 DUP4 GT ISZERO JUMPDEST PUSH2 0x262 JUMPI PUSH1 0x0 DUP1 REVERT JUMPDEST JUMPDEST PUSH1 0x1 ISZERO PUSH2 0x303 JUMPI PUSH1 0x7 DUP7 DUP7 SUB LT ISZERO PUSH2 0x28B JUMPI PUSH2 0x282 DUP8 DUP8 DUP8 DUP8 DUP8 PUSH2 0x328 JUMP JUMPDEST SWAP2 POP SWAP2 POP PUSH2 0x304 JUMP JUMPDEST PUSH1 0x0 PUSH2 0x298 DUP9 DUP9 DUP9 PUSH2 0x89C JUMP JUMPDEST SWAP1 POP DUP1 DUP5 GT PUSH2 0x2A9 JUMPI DUP1 SWAP6 POP PUSH2 0x2FD JUMP JUMPDEST DUP5 DUP2 LT ISZERO PUSH2 0x2BC JUMPI PUSH1 0x1 DUP2 ADD SWAP7 POP PUSH2 0x2FC JUMP JUMPDEST DUP1 DUP6 GT ISZERO DUP1 ISZERO PUSH2 0x2CB JUMPI POP DUP4 DUP2 LT JUMPDEST PUSH2 0x2D1 JUMPI INVALID JUMPDEST PUSH2 0x2DD DUP9 DUP9 DUP4 DUP9 PUSH2 0x993 JUMP JUMPDEST SWAP3 POP PUSH2 0x2EE DUP9 PUSH1 0x1 DUP4 ADD DUP9 DUP8 PUSH2 0x993 JUMP JUMPDEST SWAP2 POP DUP3 DUP3 SWAP3 POP SWAP3 POP POP PUSH2 0x304 JUMP JUMPDEST JUMPDEST POP PUSH2 0x263 JUMP JUMPDEST JUMPDEST SWAP6 POP SWAP6 SWAP4 POP POP POP POP JUMP JUMPDEST PUSH1 0x0 PUSH2 0x321 PUSH2 0x31C DUP4 PUSH2 0xA2D JUMP JUMPDEST PUSH2 0xAB5 JUMP JUMPDEST SWAP1 POP SWAP2 SWAP1 POP JUMP JUMPDEST PUSH1 0x0 DUP1 PUSH1 0x0 DUP7 PUSH1 0x1 DUP8 ADD SUB SWAP1 POP PUSH1 0x0 DUP9 PUSH1 0x0 DUP10 ADD DUP2 MLOAD DUP2 LT PUSH2 0x346 JUMPI INVALID JUMPDEST PUSH1 0x20 MUL PUSH1 0x20 ADD ADD MLOAD SWAP1 POP PUSH1 0x0 DUP3 PUSH1 0x1 LT PUSH2 0x380 JUMPI PUSH32 0x7FFFFFFFFFFFFFFFFFFFFFFFFFFFFFFFFFFFFFFFFFFFFFFFFFFFFFFFFFFFFFFF PUSH2 0x398 JUMP JUMPDEST DUP10 PUSH1 0x1 DUP11 ADD DUP2 MLOAD DUP2 LT PUSH2 0x38F JUMPI INVALID JUMPDEST PUSH1 0x20 MUL PUSH1 0x20 ADD ADD MLOAD JUMPDEST SWAP1 POP PUSH1 0x0 DUP4 PUSH1 0x2 LT PUSH2 0x3CA JUMPI PUSH32 0x7FFFFFFFFFFFFFFFFFFFFFFFFFFFFFFFFFFFFFFFFFFFFFFFFFFFFFFFFFFFFFFF PUSH2 0x3E2 JUMP JUMPDEST DUP11 PUSH1 0x2 DUP12 ADD DUP2 MLOAD DUP2 LT PUSH2 0x3D9 JUMPI INVALID JUMPDEST PUSH1 0x20 MUL PUSH1 0x20 ADD ADD MLOAD JUMPDEST SWAP1 POP PUSH1 0x0 DUP5 PUSH1 0x3 LT PUSH2 0x414 JUMPI PUSH32 0x7FFFFFFFFFFFFFFFFFFFFFFFFFFFFFFFFFFFFFFFFFFFFFFFFFFFFFFFFFFFFFFF PUSH2 0x42C JUMP JUMPDEST DUP12 PUSH1 0x3 DUP13 ADD DUP2 MLOAD DUP2 LT PUSH2 0x423 JUMPI INVALID JUMPDEST PUSH1 0x20 MUL PUSH1 0x20 ADD ADD MLOAD JUMPDEST SWAP1 POP PUSH1 0x0 DUP6 PUSH1 0x4 LT PUSH2 0x45E JUMPI PUSH32 0x7FFFFFFFFFFFFFFFFFFFFFFFFFFFFFFFFFFFFFFFFFFFFFFFFFFFFFFFFFFFFFFF PUSH2 0x476 JUMP JUMPDEST DUP13 PUSH1 0x4 DUP14 ADD DUP2 MLOAD DUP2 LT PUSH2 0x46D JUMPI INVALID JUMPDEST PUSH1 0x20 MUL PUSH1 0x20 ADD ADD MLOAD JUMPDEST SWAP1 POP PUSH1 0x0 DUP7 PUSH1 0x5 LT PUSH2 0x4A8 JUMPI PUSH32 0x7FFFFFFFFFFFFFFFFFFFFFFFFFFFFFFFFFFFFFFFFFFFFFFFFFFFFFFFFFFFFFFF PUSH2 0x4C0 JUMP JUMPDEST DUP14 PUSH1 0x5 DUP15 ADD DUP2 MLOAD DUP2 LT PUSH2 0x4B7 JUMPI INVALID JUMPDEST PUSH1 0x20 MUL PUSH1 0x20 ADD ADD MLOAD JUMPDEST SWAP1 POP PUSH1 0x0 DUP8 PUSH1 0x6 LT PUSH2 0x4F2 JUMPI PUSH32 0x7FFFFFFFFFFFFFFFFFFFFFFFFFFFFFFFFFFFFFFFFFFFFFFFFFFFFFFFFFFFFFFF PUSH2 0x50A JUMP JUMPDEST DUP15 PUSH1 0x6 DUP16 ADD DUP2 MLOAD DUP2 LT PUSH2 0x501 JUMPI INVALID JUMPDEST PUSH1 0x20 MUL PUSH1 0x20 ADD ADD MLOAD JUMPDEST SWAP1 POP DUP6 DUP8 SGT ISZERO PUSH2 0x51F JUMPI DUP6 DUP8 DUP1 SWAP8 POP DUP2 SWAP9 POP POP POP JUMPDEST DUP4 DUP6 SGT ISZERO PUSH2 0x532 JUMPI DUP4 DUP6 DUP1 SWAP6 POP DUP2 SWAP7 POP POP POP JUMPDEST DUP2 DUP4 SGT ISZERO PUSH2 0x545 JUMPI DUP2 DUP4 DUP1 SWAP4 POP DUP2 SWAP5 POP POP POP JUMPDEST DUP5 DUP8 SGT ISZERO PUSH2 0x558 JUMPI DUP5 DUP8 DUP1 SWAP7 POP DUP2 SWAP9 POP POP POP JUMPDEST DUP4 DUP7 SGT ISZERO PUSH2 0x56B JUMPI DUP4 DUP7 DUP1 SWAP6 POP DUP2 SWAP8 POP POP POP JUMPDEST DUP1 DUP4 SGT ISZERO PUSH2 0x57E JUMPI DUP1 DUP4 DUP1 SWAP3 POP DUP2 SWAP5 POP POP POP JUMPDEST DUP5 DUP7 SGT ISZERO PUSH2 0x591 JUMPI DUP5 DUP7 DUP1 SWAP7 POP DUP2 SWAP8 POP POP POP JUMPDEST DUP1 DUP3 SGT ISZERO PUSH2 0x5A4 JUMPI DUP1 DUP3 DUP1 SWAP3 POP DUP2 SWAP4 POP POP POP JUMPDEST DUP3 DUP8 SGT ISZERO PUSH2 0x5B7 JUMPI DUP3 DUP8 DUP1 SWAP5 POP DUP2 SWAP9 POP POP POP JUMPDEST DUP2 DUP7 SGT ISZERO PUSH2 0x5CA JUMPI DUP2 DUP7 DUP1 SWAP4 POP DUP2 SWAP8 POP POP POP JUMPDEST DUP1 DUP6 SGT ISZERO PUSH2 0x5DD JUMPI DUP1 DUP6 DUP1 SWAP3 POP DUP2 SWAP7 POP POP POP JUMPDEST DUP3 DUP7 SGT ISZERO PUSH2 0x5F0 JUMPI DUP3 DUP7 DUP1 SWAP5 POP DUP2 SWAP8 POP POP POP JUMPDEST DUP1 DUP5 SGT ISZERO PUSH2 0x603 JUMPI DUP1 DUP5 DUP1 SWAP3 POP DUP2 SWAP6 POP POP POP JUMPDEST DUP3 DUP6 SGT ISZERO PUSH2 0x616 JUMPI DUP3 DUP6 DUP1 SWAP5 POP DUP2 SWAP7 POP POP POP JUMPDEST DUP2 DUP5 SGT ISZERO PUSH2 0x629 JUMPI DUP2 DUP5 DUP1 SWAP4 POP DUP2 SWAP6 POP POP POP JUMPDEST DUP3 DUP5 SGT ISZERO PUSH2 0x63C JUMPI DUP3 DUP5 DUP1 SWAP5 POP DUP2 SWAP6 POP POP POP JUMPDEST PUSH1 0x0 DUP15 DUP14 SUB SWAP1 POP PUSH1 0x0 DUP2 EQ ISZERO PUSH2 0x654 JUMPI DUP8 SWAP11 POP PUSH2 0x72E JUMP JUMPDEST PUSH1 0x1 DUP2 EQ ISZERO PUSH2 0x665 JUMPI DUP7 SWAP11 POP PUSH2 0x72D JUMP JUMPDEST PUSH1 0x2 DUP2 EQ ISZERO PUSH2 0x676 JUMPI DUP6 SWAP11 POP PUSH2 0x72C JUMP JUMPDEST PUSH1 0x3 DUP2 EQ ISZERO PUSH2 0x687 JUMPI DUP5 SWAP11 POP PUSH2 0x72B JUMP JUMPDEST PUSH1 0x4 DUP2 EQ ISZERO PUSH2 0x698 JUMPI DUP4 SWAP11 POP PUSH2 0x72A JUMP JUMPDEST PUSH1 0x5 DUP2 EQ ISZERO PUSH2 0x6A9 JUMPI DUP3 SWAP11 POP PUSH2 0x729 JUMP JUMPDEST PUSH1 0x6 DUP2 EQ ISZERO PUSH2 0x6BA JUMPI DUP2 SWAP11 POP PUSH2 0x728 JUMP JUMPDEST PUSH1 0x40 MLOAD PUSH32 0x8C379A000000000000000000000000000000000000000000000000000000000 DUP2 MSTORE PUSH1 0x4 ADD DUP1 DUP1 PUSH1 0x20 ADD DUP3 DUP2 SUB DUP3 MSTORE PUSH1 0x10 DUP2 MSTORE PUSH1 0x20 ADD DUP1 PUSH32 0x6B31206F7574206F6620626F756E647300000000000000000000000000000000 DUP2 MSTORE POP PUSH1 0x20 ADD SWAP2 POP POP PUSH1 0x40 MLOAD DUP1 SWAP2 SUB SWAP1 REVERT JUMPDEST JUMPDEST JUMPDEST JUMPDEST JUMPDEST JUMPDEST JUMPDEST PUSH1 0x0 DUP16 DUP14 SUB SWAP1 POP DUP13 DUP15 EQ ISZERO PUSH2 0x752 JUMPI DUP12 DUP13 SWAP12 POP SWAP12 POP POP POP POP POP POP POP POP POP POP POP PUSH2 0x892 JUMP JUMPDEST PUSH1 0x0 DUP2 EQ ISZERO PUSH2 0x770 JUMPI DUP12 DUP10 SWAP12 POP SWAP12 POP POP POP POP POP POP POP POP POP POP POP PUSH2 0x892 JUMP JUMPDEST PUSH1 0x1 DUP2 EQ ISZERO PUSH2 0x78E JUMPI DUP12 DUP9 SWAP12 POP SWAP12 POP POP POP POP POP POP POP POP POP POP POP PUSH2 0x892 JUMP JUMPDEST PUSH1 0x2 DUP2 EQ ISZERO PUSH2 0x7AC JUMPI DUP12 DUP8 SWAP12 POP SWAP12 POP POP POP POP POP POP POP POP POP POP POP PUSH2 0x892 JUMP JUMPDEST PUSH1 0x3 DUP2 EQ ISZERO PUSH2 0x7CA JUMPI DUP12 DUP7 SWAP12 POP SWAP12 POP POP POP POP POP POP POP POP POP POP POP PUSH2 0x892 JUMP JUMPDEST PUSH1 0x4 DUP2 EQ ISZERO PUSH2 0x7E8 JUMPI DUP12 DUP6 SWAP12 POP SWAP12 POP POP POP POP POP POP POP POP POP POP POP PUSH2 0x892 JUMP JUMPDEST PUSH1 0x5 DUP2 EQ ISZERO PUSH2 0x806 JUMPI DUP12 DUP5 SWAP12 POP SWAP12 POP POP POP POP POP POP POP POP POP POP POP PUSH2 0x892 JUMP JUMPDEST PUSH1 0x6 DUP2 EQ ISZERO PUSH2 0x824 JUMPI DUP12 DUP4 SWAP12 POP SWAP12 POP POP POP POP POP POP POP POP POP POP POP PUSH2 0x892 JUMP JUMPDEST PUSH1 0x40 MLOAD PUSH32 0x8C379A000000000000000000000000000000000000000000000000000000000 DUP2 MSTORE PUSH1 0x4 ADD DUP1 DUP1 PUSH1 0x20 ADD DUP3 DUP2 SUB DUP3 MSTORE PUSH1 0x10 DUP2 MSTORE PUSH1 0x20 ADD DUP1 PUSH32 0x6B32206F7574206F6620626F756E647300000000000000000000000000000000 DUP2 MSTORE POP PUSH1 0x20 ADD SWAP2 POP POP PUSH1 0x40 MLOAD DUP1 SWAP2 SUB SWAP1 REVERT JUMPDEST SWAP6 POP SWAP6 SWAP4 POP POP POP POP JUMP JUMPDEST PUSH1 0x0 DUP1 DUP5 PUSH1 0x2 DUP5 DUP7 ADD DUP2 PUSH2 0x8AC JUMPI INVALID JUMPDEST DIV DUP2 MLOAD DUP2 LT PUSH2 0x8B7 JUMPI INVALID JUMPDEST PUSH1 0x20 MUL PUSH1 0x20 ADD ADD MLOAD SWAP1 POP PUSH1 0x1 DUP5 SUB SWAP4 POP PUSH1 0x1 DUP4 ADD SWAP3 POP JUMPDEST PUSH1 0x1 ISZERO PUSH2 0x98A JUMPI JUMPDEST PUSH1 0x1 DUP5 ADD SWAP4 POP DUP1 DUP6 DUP6 DUP2 MLOAD DUP2 LT PUSH2 0x8E9 JUMPI INVALID JUMPDEST PUSH1 0x20 MUL PUSH1 0x20 ADD ADD MLOAD SLT PUSH2 0x8D6 JUMPI JUMPDEST PUSH1 0x1 DUP4 SUB SWAP3 POP DUP1 DUP6 DUP5 DUP2 MLOAD DUP2 LT PUSH2 0x90A JUMPI INVALID JUMPDEST PUSH1 0x20 MUL PUSH1 0x20 ADD ADD MLOAD SGT PUSH2 0x8F7 JUMPI DUP3 DUP5 LT ISZERO PUSH2 0x97C JUMPI DUP5 DUP4 DUP2 MLOAD DUP2 LT PUSH2 0x92B JUMPI INVALID JUMPDEST PUSH1 0x20 MUL PUSH1 0x20 ADD ADD MLOAD DUP6 DUP6 DUP2 MLOAD DUP2 LT PUSH2 0x93F JUMPI INVALID JUMPDEST PUSH1 0x20 MUL PUSH1 0x20 ADD ADD MLOAD DUP7 DUP7 DUP2 MLOAD DUP2 LT PUSH2 0x953 JUMPI INVALID JUMPDEST PUSH1 0x20 MUL PUSH1 0x20 ADD ADD DUP8 DUP7 DUP2 MLOAD DUP2 LT PUSH2 0x966 JUMPI INVALID JUMPDEST PUSH1 0x20 MUL PUSH1 0x20 ADD ADD DUP3 DUP2 MSTORE POP DUP3 DUP2 MSTORE POP POP POP PUSH2 0x985 JUMP JUMPDEST DUP3 SWAP2 POP POP PUSH2 0x98C JUMP JUMPDEST PUSH2 0x8CE JUMP JUMPDEST POP JUMPDEST SWAP4 SWAP3 POP POP POP JUMP JUMPDEST PUSH1 0x0 DUP2 DUP5 GT ISZERO PUSH2 0x9A2 JUMPI PUSH1 0x0 DUP1 REVERT JUMPDEST DUP3 DUP3 GT ISZERO PUSH2 0x9AF JUMPI PUSH1 0x0 DUP1 REVERT JUMPDEST JUMPDEST DUP3 DUP5 LT ISZERO PUSH2 0xA0E JUMPI PUSH1 0x7 DUP5 DUP5 SUB LT ISZERO PUSH2 0x9E3 JUMPI PUSH1 0x0 PUSH2 0x9D2 DUP7 DUP7 DUP7 DUP7 DUP8 PUSH2 0x328 JUMP JUMPDEST DUP1 SWAP3 POP DUP2 SWAP4 POP POP POP DUP2 SWAP2 POP POP PUSH2 0xA25 JUMP JUMPDEST PUSH1 0x0 PUSH2 0x9F0 DUP7 DUP7 DUP7 PUSH2 0x89C JUMP JUMPDEST SWAP1 POP DUP1 DUP4 GT PUSH2 0xA01 JUMPI DUP1 SWAP4 POP PUSH2 0xA08 JUMP JUMPDEST PUSH1 0x1 DUP2 ADD SWAP5 POP JUMPDEST POP PUSH2 0x9B0 JUMP JUMPDEST DUP5 DUP5 DUP2 MLOAD DUP2 LT PUSH2 0xA1A JUMPI INVALID JUMPDEST PUSH1 0x20 MUL PUSH1 0x20 ADD ADD MLOAD SWAP1 POP JUMPDEST SWAP5 SWAP4 POP POP POP POP JUMP JUMPDEST PUSH1 0x60 DUP1 DUP3 MLOAD PUSH1 0x40 MLOAD SWAP1 DUP1 DUP3 MSTORE DUP1 PUSH1 0x20 MUL PUSH1 0x20 ADD DUP3 ADD PUSH1 0x40 MSTORE DUP1 ISZERO PUSH2 0xA60 JUMPI DUP2 PUSH1 0x20 ADD PUSH1 0x20 DUP3 MUL DUP1 CODESIZE DUP4 CODECOPY DUP1 DUP3 ADD SWAP2 POP POP SWAP1 POP JUMPDEST POP SWAP1 POP PUSH1 0x0 DUP1 SWAP1 POP JUMPDEST DUP4 MLOAD DUP2 LT ISZERO PUSH2 0xAAB JUMPI DUP4 DUP2 DUP2 MLOAD DUP2 LT PUSH2 0xA7E JUMPI INVALID JUMPDEST PUSH1 0x20 MUL PUSH1 0x20 ADD ADD MLOAD DUP3 DUP3 DUP2 MLOAD DUP2 LT PUSH2 0xA92 JUMPI INVALID JUMPDEST PUSH1 0x20 MUL PUSH1 0x20 ADD ADD DUP2 DUP2 MSTORE POP POP DUP1 DUP1 PUSH1 0x1 ADD SWAP2 POP POP PUSH2 0xA69 JUMP JUMPDEST POP DUP1 SWAP2 POP POP SWAP2 SWAP1 POP JUMP JUMPDEST PUSH1 0x0 DUP2 MLOAD PUSH1 0x0 LT PUSH2 0xB2E JUMPI PUSH1 0x40 MLOAD PUSH32 0x8C379A000000000000000000000000000000000000000000000000000000000 DUP2 MSTORE PUSH1 0x4 ADD DUP1 DUP1 PUSH1 0x20 ADD DUP3 DUP2 SUB DUP3 MSTORE PUSH1 0x16 DUP2 MSTORE PUSH1 0x20 ADD DUP1 PUSH32 0x6C697374206D757374206E6F7420626520656D70747900000000000000000000 DUP2 MSTORE POP PUSH1 0x20 ADD SWAP2 POP POP PUSH1 0x40 MLOAD DUP1 SWAP2 SUB SWAP1 REVERT JUMPDEST PUSH1 0x0 DUP3 MLOAD SWAP1 POP PUSH1 0x0 PUSH1 0x2 DUP3 DUP2 PUSH2 0xB40 JUMPI INVALID JUMPDEST DIV SWAP1 POP PUSH1 0x0 PUSH1 0x2 DUP4 DUP2 PUSH2 0xB4F JUMPI INVALID JUMPDEST MOD EQ ISZERO PUSH2 0xB8A JUMPI PUSH1 0x0 DUP1 PUSH2 0xB6D DUP7 PUSH1 0x0 PUSH1 0x1 DUP8 SUB PUSH1 0x1 DUP8 SUB DUP8 PUSH2 0x221 JUMP JUMPDEST DUP1 SWAP3 POP DUP2 SWAP4 POP POP POP PUSH2 0xB7F DUP3 DUP3 PUSH2 0xBA4 JUMP JUMPDEST SWAP5 POP POP POP POP POP PUSH2 0xB9F JUMP JUMPDEST PUSH2 0xB9A DUP5 PUSH1 0x0 PUSH1 0x1 DUP6 SUB DUP5 PUSH2 0x993 JUMP JUMPDEST SWAP3 POP POP POP JUMPDEST SWAP2 SWAP1 POP JUMP JUMPDEST PUSH1 0x0 DUP1 PUSH1 0x2 DUP1 DUP5 DUP2 PUSH2 0xBB2 JUMPI INVALID JUMPDEST SMOD PUSH1 0x2 DUP7 DUP2 PUSH2 0xBBD JUMPI INVALID JUMPDEST SMOD ADD DUP2 PUSH2 0xBC6 JUMPI INVALID JUMPDEST SDIV SWAP1 POP PUSH2 0xBF0 PUSH2 0xBEA PUSH1 0x2 DUP7 DUP2 PUSH2 0xBD9 JUMPI INVALID JUMPDEST SDIV PUSH1 0x2 DUP7 DUP2 PUSH2 0xBE4 JUMPI INVALID JUMPDEST SDIV PUSH2 0xBF9 JUMP JUMPDEST DUP3 PUSH2 0xBF9 JUMP JUMPDEST SWAP2 POP POP SWAP3 SWAP2 POP POP JUMP JUMPDEST PUSH1 0x0 DUP1 DUP3 DUP5 ADD SWAP1 POP PUSH1 0x0 DUP4 SLT ISZERO DUP1 ISZERO PUSH2 0xC12 JUMPI POP DUP4 DUP2 SLT ISZERO JUMPDEST DUP1 PUSH2 0xC28 JUMPI POP PUSH1 0x0 DUP4 SLT DUP1 ISZERO PUSH2 0xC27 JUMPI POP DUP4 DUP2 SLT JUMPDEST JUMPDEST PUSH2 0xC7D JUMPI PUSH1 0x40 MLOAD PUSH32 0x8C379A000000000000000000000000000000000000000000000000000000000 DUP2 MSTORE PUSH1 0x4 ADD DUP1 DUP1 PUSH1 0x20 ADD DUP3 DUP2 SUB DUP3 MSTORE PUSH1 0x21 DUP2 MSTORE PUSH1 0x20 ADD DUP1 PUSH2 0xC88 PUSH1 0x21 SWAP2 CODECOPY PUSH1 0x40 ADD SWAP2 POP POP PUSH1 0x40 MLOAD DUP1 SWAP2 SUB SWAP1 REVERT JUMPDEST DUP1 SWAP2 POP POP SWAP3 SWAP2 POP POP JUMP INVALID MSTORE8 PUSH10 0x676E6564536166654D61 PUSH21 0x683A206164646974696F6E206F766572666C6F77A2 PUSH5 0x6970667358 0x22 SLT KECCAK256 0xBF BALANCE PUSH29 0x844DE1F2982518F02BAE9435ED0B0CDB696CD45E7E41DAFA7CEDA70B68 PUSH5 0x736F6C6343 STOP MOD MUL STOP CALLER "
			},
			"methodIdentifiers": {
				"publicGet(int256[])": "115efb20",
				"publicQuickselectTwo(int256[],uint256,uint256)": "0fb75cff"
			}
		},
		"userdoc": {
			"methods": {}
		}
	},
	"sourceTreeHashHex": "0xbf0f210adee5a209cc7094bdbce6f13542760930855328e888642fc3ad7ff1a7",
	"compiler": {
		"name": "solc",
		"version": "soljson-v0.6.2+commit.bacdbe57.js",
		"settings": {
			"optimizer": {
				"enabled": false
			},
			"outputSelection": {
				"*": {
					"*": [
						"abi",
						"devdoc",
						"userdoc",
						"evm.bytecode.object",
						"evm.bytecode.sourceMap",
						"evm.deployedBytecode.object",
						"evm.deployedBytecode.sourceMap",
						"evm.methodIdentifiers",
						"metadata"
					]
				}
			},
			"remappings": []
		}
	},
	"chains": {}
}