{
	"schemaVersion": "2.0.0",
	"contractName": "VRFTestHelper",
	"compilerOutput": {
		"abi": [
			{
				"inputs": [
					{
						"internalType": "uint256[2]",
						"name": "p1",
						"type": "uint256[2]"
					},
					{
						"internalType": "uint256[2]",
						"name": "p2",
						"type": "uint256[2]"
					},
					{
						"internalType": "uint256",
						"name": "invZ",
						"type": "uint256"
					}
				],
				"name": "affineECAdd_",
				"outputs": [
					{
						"internalType": "uint256[2]",
						"name": "",
						"type": "uint256[2]"
					}
				],
				"stateMutability": "pure",
				"type": "function"
			},
			{
				"inputs": [
					{
						"internalType": "uint256",
						"name": "base",
						"type": "uint256"
					},
					{
						"internalType": "uint256",
						"name": "exponent",
						"type": "uint256"
					}
				],
				"name": "bigModExp_",
				"outputs": [
					{
						"internalType": "uint256",
						"name": "",
						"type": "uint256"
					}
				],
				"stateMutability": "view",
				"type": "function"
			},
			{
				"inputs": [
					{
						"internalType": "uint256[2]",
						"name": "x",
						"type": "uint256[2]"
					},
					{
						"internalType": "uint256",
						"name": "scalar",
						"type": "uint256"
					},
					{
						"internalType": "uint256[2]",
						"name": "q",
						"type": "uint256[2]"
					}
				],
				"name": "ecmulVerify_",
				"outputs": [
					{
						"internalType": "bool",
						"name": "",
						"type": "bool"
					}
				],
				"stateMutability": "pure",
				"type": "function"
			},
			{
				"inputs": [
					{
						"internalType": "bytes",
						"name": "b",
						"type": "bytes"
					}
				],
				"name": "fieldHash_",
				"outputs": [
					{
						"internalType": "uint256",
						"name": "",
						"type": "uint256"
					}
				],
				"stateMutability": "pure",
				"type": "function"
			},
			{
				"inputs": [
					{
						"internalType": "uint256[2]",
						"name": "pk",
						"type": "uint256[2]"
					},
					{
						"internalType": "uint256",
						"name": "x",
						"type": "uint256"
					}
				],
				"name": "hashToCurve_",
				"outputs": [
					{
						"internalType": "uint256[2]",
						"name": "",
						"type": "uint256[2]"
					}
				],
				"stateMutability": "view",
				"type": "function"
			},
			{
				"inputs": [
					{
						"internalType": "uint256",
						"name": "c",
						"type": "uint256"
					},
					{
						"internalType": "uint256[2]",
						"name": "p1",
						"type": "uint256[2]"
					},
					{
						"internalType": "uint256[2]",
						"name": "cp1Witness",
						"type": "uint256[2]"
					},
					{
						"internalType": "uint256",
						"name": "s",
						"type": "uint256"
					},
					{
						"internalType": "uint256[2]",
						"name": "p2",
						"type": "uint256[2]"
					},
					{
						"internalType": "uint256[2]",
						"name": "sp2Witness",
						"type": "uint256[2]"
					},
					{
						"internalType": "uint256",
						"name": "zInv",
						"type": "uint256"
					}
				],
				"name": "linearCombination_",
				"outputs": [
					{
						"internalType": "uint256[2]",
						"name": "",
						"type": "uint256[2]"
					}
				],
				"stateMutability": "pure",
				"type": "function"
			},
			{
				"inputs": [
					{
						"internalType": "uint256",
						"name": "px",
						"type": "uint256"
					},
					{
						"internalType": "uint256",
						"name": "py",
						"type": "uint256"
					},
					{
						"internalType": "uint256",
						"name": "qx",
						"type": "uint256"
					},
					{
						"internalType": "uint256",
						"name": "qy",
						"type": "uint256"
					}
				],
				"name": "projectiveECAdd_",
				"outputs": [
					{
						"internalType": "uint256",
						"name": "",
						"type": "uint256"
					},
					{
						"internalType": "uint256",
						"name": "",
						"type": "uint256"
					},
					{
						"internalType": "uint256",
						"name": "",
						"type": "uint256"
					}
				],
				"stateMutability": "pure",
				"type": "function"
			},
			{
				"inputs": [
					{
						"internalType": "bytes",
						"name": "proof",
						"type": "bytes"
					}
				],
				"name": "randomValueFromVRFProof_",
				"outputs": [
					{
						"internalType": "uint256",
						"name": "output",
						"type": "uint256"
					}
				],
				"stateMutability": "view",
				"type": "function"
			},
			{
				"inputs": [
					{
						"internalType": "uint256[2]",
						"name": "hash",
						"type": "uint256[2]"
					},
					{
						"internalType": "uint256[2]",
						"name": "pk",
						"type": "uint256[2]"
					},
					{
						"internalType": "uint256[2]",
						"name": "gamma",
						"type": "uint256[2]"
					},
					{
						"internalType": "address",
						"name": "uWitness",
						"type": "address"
					},
					{
						"internalType": "uint256[2]",
						"name": "v",
						"type": "uint256[2]"
					}
				],
				"name": "scalarFromCurvePoints_",
				"outputs": [
					{
						"internalType": "uint256",
						"name": "",
						"type": "uint256"
					}
				],
				"stateMutability": "pure",
				"type": "function"
			},
			{
				"inputs": [
					{
						"internalType": "uint256",
						"name": "x",
						"type": "uint256"
					}
				],
				"name": "squareRoot_",
				"outputs": [
					{
						"internalType": "uint256",
						"name": "",
						"type": "uint256"
					}
				],
				"stateMutability": "view",
				"type": "function"
			},
			{
				"inputs": [
					{
						"internalType": "uint256",
						"name": "c",
						"type": "uint256"
					},
					{
						"internalType": "uint256[2]",
						"name": "p",
						"type": "uint256[2]"
					},
					{
						"internalType": "uint256",
						"name": "s",
						"type": "uint256"
					},
					{
						"internalType": "address",
						"name": "lcWitness",
						"type": "address"
					}
				],
				"name": "verifyLinearCombinationWithGenerator_",
				"outputs": [
					{
						"internalType": "bool",
						"name": "",
						"type": "bool"
					}
				],
				"stateMutability": "pure",
				"type": "function"
			},
			{
				"inputs": [
					{
						"internalType": "uint256[2]",
						"name": "pk",
						"type": "uint256[2]"
					},
					{
						"internalType": "uint256[2]",
						"name": "gamma",
						"type": "uint256[2]"
					},
					{
						"internalType": "uint256",
						"name": "c",
						"type": "uint256"
					},
					{
						"internalType": "uint256",
						"name": "s",
						"type": "uint256"
					},
					{
						"internalType": "uint256",
						"name": "seed",
						"type": "uint256"
					},
					{
						"internalType": "address",
						"name": "uWitness",
						"type": "address"
					},
					{
						"internalType": "uint256[2]",
						"name": "cGammaWitness",
						"type": "uint256[2]"
					},
					{
						"internalType": "uint256[2]",
						"name": "sHashWitness",
						"type": "uint256[2]"
					},
					{
						"internalType": "uint256",
						"name": "zInv",
						"type": "uint256"
					}
				],
				"name": "verifyVRFProof_",
				"outputs": [],
				"stateMutability": "view",
				"type": "function"
			},
			{
				"inputs": [
					{
						"internalType": "uint256",
						"name": "x",
						"type": "uint256"
					}
				],
				"name": "ySquared_",
				"outputs": [
					{
						"internalType": "uint256",
						"name": "",
						"type": "uint256"
					}
				],
				"stateMutability": "pure",
				"type": "function"
			}
		],
		"devdoc": {
			"methods": {}
		},
		"evm": {
			"bytecode": {
				"linkReferences": {},
				"object": "0x608060405234801561001057600080fd5b50612220806100206000396000f3fe608060405234801561001057600080fd5b50600436106100cf5760003560e01c806395e6ee921161008c578063b481e26011610066578063b481e2601461067f578063cefda0c51461074e578063ef3b10ec1461081d578063fe54f2a21461098e576100cf565b806395e6ee92146105075780639d6f033714610575578063aa7b2fbb146105b7576100cf565b8063244f896d146100d457806335452450146101c05780635de600421461026b5780637f8f50a8146102b75780638af046ea1461041457806391d5f69114610456575b600080fd5b610182600480360360a08110156100ea57600080fd5b8101908080604001906002806020026040519081016040528092919082600260200280828437600081840152601f19601f820116905080830192505050505050919291929080604001906002806020026040519081016040528092919082600260200280828437600081840152601f19601f820116905080830192505050505050919291929080359060200190929190505050610b11565b6040518082600260200280838360005b838110156101ad578082015181840152602081019050610192565b5050505090500191505060405180910390f35b61022d600480360360608110156101d657600080fd5b8101908080604001906002806020026040519081016040528092919082600260200280828437600081840152601f19601f820116905080830192505050505050919291929080359060200190929190505050610b2d565b6040518082600260200280838360005b8381101561025857808201518184015260208101905061023d565b5050505090500191505060405180910390f35b6102a16004803603604081101561028157600080fd5b810190808035906020019092919080359060200190929190505050610b47565b6040518082815260200191505060405180910390f35b6103fe60048036036101208110156102ce57600080fd5b8101908080604001906002806020026040519081016040528092919082600260200280828437600081840152601f19601f820116905080830192505050505050919291929080604001906002806020026040519081016040528092919082600260200280828437600081840152601f19601f820116905080830192505050505050919291929080604001906002806020026040519081016040528092919082600260200280828437600081840152601f19601f8201169050808301925050505050509192919290803573ffffffffffffffffffffffffffffffffffffffff16906020019092919080604001906002806020026040519081016040528092919082600260200280828437600081840152601f19601f8201169050808301925050505050509192919290505050610b5b565b6040518082815260200191505060405180910390f35b6104406004803603602081101561042a57600080fd5b8101908080359060200190929190505050610b75565b6040518082815260200191505060405180910390f35b6104ed600480360360a081101561046c57600080fd5b810190808035906020019092919080604001906002806020026040519081016040528092919082600260200280828437600081840152601f19601f820116905080830192505050505050919291929080359060200190929190803573ffffffffffffffffffffffffffffffffffffffff169060200190929190505050610b87565b604051808215151515815260200191505060405180910390f35b6105516004803603608081101561051d57600080fd5b8101908080359060200190929190803590602001909291908035906020019092919080359060200190929190505050610b9f565b60405180848152602001838152602001828152602001935050505060405180910390f35b6105a16004803603602081101561058b57600080fd5b8101908080359060200190929190505050610bc0565b6040518082815260200191505060405180910390f35b610665600480360360a08110156105cd57600080fd5b8101908080604001906002806020026040519081016040528092919082600260200280828437600081840152601f19601f82011690508083019250505050505091929192908035906020019092919080604001906002806020026040519081016040528092919082600260200280828437600081840152601f19601f8201169050808301925050505050509192919290505050610bd2565b604051808215151515815260200191505060405180910390f35b6107386004803603602081101561069557600080fd5b81019080803590602001906401000000008111156106b257600080fd5b8201836020820111156106c457600080fd5b803590602001918460018302840111640100000000831117156106e657600080fd5b91908080601f016020809104026020016040519081016040528093929190818152602001838380828437600081840152601f19601f820116905080830192505050505050509192919290505050610be8565b6040518082815260200191505060405180910390f35b6108076004803603602081101561076457600080fd5b810190808035906020019064010000000081111561078157600080fd5b82018360208201111561079357600080fd5b803590602001918460018302840111640100000000831117156107b557600080fd5b91908080601f016020809104026020016040519081016040528093929190818152602001838380828437600081840152601f19601f820116905080830192505050505050509192919290505050610bfa565b6040518082815260200191505060405180910390f35b61098c60048036036101a081101561083457600080fd5b8101908080604001906002806020026040519081016040528092919082600260200280828437600081840152601f19601f820116905080830192505050505050919291929080604001906002806020026040519081016040528092919082600260200280828437600081840152601f19601f8201169050808301925050505050509192919290803590602001909291908035906020019092919080359060200190929190803573ffffffffffffffffffffffffffffffffffffffff16906020019092919080604001906002806020026040519081016040528092919082600260200280828437600081840152601f19601f820116905080830192505050505050919291929080604001906002806020026040519081016040528092919082600260200280828437600081840152601f19601f820116905080830192505050505050919291929080359060200190929190505050610c0c565b005b610ad360048036036101608110156109a557600080fd5b810190808035906020019092919080604001906002806020026040519081016040528092919082600260200280828437600081840152601f19601f820116905080830192505050505050919291929080604001906002806020026040519081016040528092919082600260200280828437600081840152601f19601f82011690508083019250505050505091929192908035906020019092919080604001906002806020026040519081016040528092919082600260200280828437600081840152601f19601f820116905080830192505050505050919291929080604001906002806020026040519081016040528092919082600260200280828437600081840152601f19601f820116905080830192505050505050919291929080359060200190929190505050610c28565b6040518082600260200280838360005b83811015610afe578082015181840152602081019050610ae3565b5050505090500191505060405180910390f35b610b1961211f565b610b24848484610c4c565b90509392505050565b610b3561211f565b610b3f8383610dca565b905092915050565b6000610b538383610e89565b905092915050565b6000610b6a8686868686610feb565b905095945050505050565b6000610b808261111a565b9050919050565b6000610b9585858585611154565b9050949350505050565b6000806000610bb08787878761138c565b9250925092509450945094915050565b6000610bcb82611560565b9050919050565b6000610bdf8484846115ee565b90509392505050565b6000610bf382611779565b9050919050565b6000610c05826117e6565b9050919050565b610c1d8989898989898989896119b6565b505050505050505050565b610c3061211f565b610c3f88888888888888611ce1565b9050979650505050505050565b610c5461211f565b6000806000610ca987600060028110610c6957fe5b602002015188600160028110610c7b57fe5b602002015188600060028110610c8d57fe5b602002015189600160028110610c9f57fe5b602002015161138c565b80935081945082955050505060017ffffffffffffffffffffffffffffffffffffffffffffffffffffffffefffffc2f80610cdf57fe5b86830914610d55576040517f08c379a00000000000000000000000000000000000000000000000000000000081526004018080602001828103825260198152602001807f696e765a206d75737420626520696e7665727365206f66207a0000000000000081525060200191505060405180910390fd5b60405180604001604052807ffffffffffffffffffffffffffffffffffffffffffffffffffffffffefffffc2f80610d8857fe5b87860981526020017ffffffffffffffffffffffffffffffffffffffffffffffffffffffffefffffc2f80610db857fe5b87850981525093505050509392505050565b610dd261211f565b610e33600184846040516020018084815260200183600260200280838360005b83811015610e0d578082015181840152602081019050610df2565b505050509050018281526020019350505050604051602081830303815290604052611e85565b90505b610e3f81611f58565b610e8357610e7c81600060028110610e5357fe5b602002015160405160200180828152602001915050604051602081830303815290604052611e85565b9050610e36565b92915050565b600080610e94612141565b602081600060068110610ea357fe5b602002018181525050602081600160068110610ebb57fe5b602002018181525050602081600260068110610ed357fe5b6020020181815250508481600360068110610eea57fe5b6020020181815250508381600460068110610f0157fe5b6020020181815250507ffffffffffffffffffffffffffffffffffffffffffffffffffffffffefffffc2f81600560068110610f3857fe5b602002018181525050610f49612163565b60208160c0846005600019fa92506000831415610fce576040517f08c379a00000000000000000000000000000000000000000000000000000000081526004018080602001828103825260128152602001807f6269674d6f64457870206661696c75726521000000000000000000000000000081525060200191505060405180910390fd5b80600060018110610fdb57fe5b6020020151935050505092915050565b6000600286868685876040516020018087815260200186600260200280838360005b8381101561102857808201518184015260208101905061100d565b5050505090500185600260200280838360005b8381101561105657808201518184015260208101905061103b565b5050505090500184600260200280838360005b83811015611084578082015181840152602081019050611069565b5050505090500183600260200280838360005b838110156110b2578082015181840152602081019050611097565b505050509050018273ffffffffffffffffffffffffffffffffffffffff1673ffffffffffffffffffffffffffffffffffffffff1660601b815260140196505050505050506040516020818303038152906040528051906020012060001c905095945050505050565b600061114d82600260017ffffffffffffffffffffffffffffffffffffffffffffffffffffffffefffffc2f01901c610e89565b9050919050565b60008073ffffffffffffffffffffffffffffffffffffffff168273ffffffffffffffffffffffffffffffffffffffff1614156111f8576040517f08c379a000000000000000000000000000000000000000000000000000000000815260040180806020018281038252600b8152602001807f626164207769746e65737300000000000000000000000000000000000000000081525060200191505060405180910390fd5b60008060028660016002811061120a57fe5b60200201518161121657fe5b061461122357601c611226565b601b5b905060007ffffffffffffffffffffffffffffffffebaaedce6af48a03bbfd25e8cd03641418061125257fe5b858760006002811061126057fe5b6020020151097ffffffffffffffffffffffffffffffffebaaedce6af48a03bbfd25e8cd03641410360001b905060007ffffffffffffffffffffffffffffffffebaaedce6af48a03bbfd25e8cd0364141806112b757fe5b876000600281106112c457fe5b6020020151890960001b90506000600183858a6000600281106112e357fe5b602002015160001b8560405160008152602001604052604051808581526020018460ff1660ff1681526020018381526020018281526020019450505050506020604051602081039080840390855afa158015611343573d6000803e3d6000fd5b5050506020604051035190508573ffffffffffffffffffffffffffffffffffffffff168173ffffffffffffffffffffffffffffffffffffffff1614945050505050949350505050565b60008060008060006001809150915060007ffffffffffffffffffffffffffffffffffffffffffffffffffffffffefffffc2f806113c557fe5b897ffffffffffffffffffffffffffffffffffffffffffffffffffffffffefffffc2f038808905060007ffffffffffffffffffffffffffffffffffffffffffffffffffffffffefffffc2f8061141657fe5b8b7ffffffffffffffffffffffffffffffffffffffffffffffffffffffffefffffc2f038a089050600061144b83838585611fc9565b809250819950505061145f88828e88612033565b809250819950505061147388828c87612033565b809250819950505060006114898d878b85612033565b809250819950505061149d88828686611fc9565b80925081995050506114b188828e89612033565b809250819950505080821461154c577ffffffffffffffffffffffffffffffffffffffffffffffffffffffffefffffc2f806114e857fe5b818a0998507ffffffffffffffffffffffffffffffffffffffffffffffffffffffffefffffc2f8061151557fe5b82890997507ffffffffffffffffffffffffffffffffffffffffffffffffffffffffefffffc2f8061154257fe5b8183099650611550565b8196505b5050505050509450945094915050565b6000807ffffffffffffffffffffffffffffffffffffffffffffffffffffffffefffffc2f8061158b57fe5b7ffffffffffffffffffffffffffffffffffffffffffffffffffffffffefffffc2f806115b357fe5b848509840990507ffffffffffffffffffffffffffffffffffffffffffffffffffffffffefffffc2f806115e257fe5b60078208915050919050565b6000808314156115fd57600080fd5b60008460006002811061160c57fe5b6020020151905060008060028760016002811061162557fe5b60200201518161163157fe5b061461163e57601c611641565b601b5b905060007ffffffffffffffffffffffffffffffffebaaedce6af48a03bbfd25e8cd03641418061166d57fe5b83870960001b9050600060016000801b848660001b8560405160008152602001604052604051808581526020018460ff1660ff1681526020018381526020018281526020019450505050506020604051602081039080840390855afa1580156116da573d6000803e3d6000fd5b5050506020604051035190506000866040516020018082600260200280838360005b838110156117175780820151818401526020810190506116fc565b505050509050019150506040516020818303038152906040528051906020012060001c90508073ffffffffffffffffffffffffffffffffffffffff168273ffffffffffffffffffffffffffffffffffffffff1614955050505050509392505050565b6000818051906020012060001c90505b7ffffffffffffffffffffffffffffffffffffffffffffffffffffffffefffffc2f81106117e15780604051602001808281526020019150506040516020818303038152906040528051906020012060001c9050611789565b919050565b60006101a0825114611860576040517f08c379a00000000000000000000000000000000000000000000000000000000081526004018080602001828103825260128152602001807f77726f6e672070726f6f66206c656e677468000000000000000000000000000081525060200191505060405180910390fd5b61186861211f565b61187061211f565b611878612185565b600061188261211f565b61188a61211f565b6000888060200190516101a08110156118a257600080fd5b810190809190826040019190826040019190826060018051906020019092919091908260400191908260400180519060200190929190505050869650859550849450839350829250819150809750819850829950839a50849b50859c50869d505050505050505061194d87878760006003811061191b57fe5b60200201518860016003811061192d57fe5b60200201518960026003811061193f57fe5b6020020151898989896119b6565b6003866040516020018083815260200182600260200280838360005b83811015611984578082015181840152602081019050611969565b50505050905001925050506040516020818303038152906040528051906020012060001c975050505050505050919050565b6119bf89611f58565b611a31576040517f08c379a000000000000000000000000000000000000000000000000000000000815260040180806020018281038252601a8152602001807f7075626c6963206b6579206973206e6f74206f6e20637572766500000000000081525060200191505060405180910390fd5b611a3a88611f58565b611aac576040517f08c379a00000000000000000000000000000000000000000000000000000000081526004018080602001828103825260158152602001807f67616d6d61206973206e6f74206f6e206375727665000000000000000000000081525060200191505060405180910390fd5b611ab583611f58565b611b27576040517f08c379a000000000000000000000000000000000000000000000000000000000815260040180806020018281038252601d8152602001807f6347616d6d615769746e657373206973206e6f74206f6e20637572766500000081525060200191505060405180910390fd5b611b3082611f58565b611ba2576040517f08c379a000000000000000000000000000000000000000000000000000000000815260040180806020018281038252601c8152602001807f73486173685769746e657373206973206e6f74206f6e2063757276650000000081525060200191505060405180910390fd5b611bae878a8887611154565b611c20576040517f08c379a000000000000000000000000000000000000000000000000000000000815260040180806020018281038252601a8152602001807f6164647228632a706b2b732a6729e289a05f755769746e65737300000000000081525060200191505060405180910390fd5b611c2861211f565b611c328a87610dca565b9050611c3c61211f565b611c4b898b878b868989611ce1565b90506000611c5c838d8d8a86610feb565b9050808a14611cd3576040517f08c379a000000000000000000000000000000000000000000000000000000000815260040180806020018281038252600d8152602001807f696e76616c69642070726f6f660000000000000000000000000000000000000081525060200191505060405180910390fd5b505050505050505050505050565b611ce961211f565b60007ffffffffffffffffffffffffffffffffffffffffffffffffffffffffefffffc2f84600060028110611d1957fe5b602002015188600060028110611d2b57fe5b60200201510381611d3857fe5b061415611dad576040517f08c379a000000000000000000000000000000000000000000000000000000000815260040180806020018281038252601e8152602001807f706f696e747320696e2073756d206d7573742062652064697374696e6374000081525060200191505060405180910390fd5b611db88789886115ee565b611e0d576040517f08c379a00000000000000000000000000000000000000000000000000000000081526004018080602001828103825260218152602001806121a86021913960400191505060405180910390fd5b611e188486856115ee565b611e6d576040517f08c379a00000000000000000000000000000000000000000000000000000000081526004018080602001828103825260228152602001806121c96022913960400191505060405180910390fd5b611e78868484610c4c565b9050979650505050505050565b611e8d61211f565b611e9682611779565b81600060028110611ea357fe5b602002018181525050611ece611ec982600060028110611ebf57fe5b6020020151611560565b61111a565b81600160028110611edb57fe5b6020020181815250506001600282600160028110611ef557fe5b602002015181611f0157fe5b061415611f535780600160028110611f1557fe5b60200201517ffffffffffffffffffffffffffffffffffffffffffffffffffffffffefffffc2f0381600160028110611f4957fe5b6020020181815250505b919050565b60007ffffffffffffffffffffffffffffffffffffffffffffffffffffffffefffffc2f80611f8257fe5b82600160028110611f8f57fe5b602002015183600160028110611fa157fe5b602002015109611fc183600060028110611fb757fe5b6020020151611560565b149050919050565b6000807ffffffffffffffffffffffffffffffffffffffffffffffffffffffffefffffc2f80611ff457fe5b8487097ffffffffffffffffffffffffffffffffffffffffffffffffffffffffefffffc2f8061201f57fe5b848709809250819350505094509492505050565b60008060007ffffffffffffffffffffffffffffffffffffffffffffffffffffffffefffffc2f8061206057fe5b878509905060007ffffffffffffffffffffffffffffffffffffffffffffffffffffffffefffffc2f8061208f57fe5b87877ffffffffffffffffffffffffffffffffffffffffffffffffffffffffefffffc2f030990507ffffffffffffffffffffffffffffffffffffffffffffffffffffffffefffffc2f806120de57fe5b8183087ffffffffffffffffffffffffffffffffffffffffffffffffffffffffefffffc2f8061210957fe5b8689098094508195505050505094509492505050565b6040518060400160405280600290602082028038833980820191505090505090565b6040518060c00160405280600690602082028038833980820191505090505090565b6040518060200160405280600190602082028038833980820191505090505090565b604051806060016040528060039060208202803883398082019150509050509056fe4669727374206d756c7469706c69636174696f6e20636865636b206661696c65645365636f6e64206d756c7469706c69636174696f6e20636865636b206661696c6564a264697066735822122059895ae68c83c1643d4051daf2ce742530f14b7dc90d7bb99fe8210f7273a72664736f6c63430006020033",
				"opcodes": "PUSH1 0x80 PUSH1 0x40 MSTORE CALLVALUE DUP1 ISZERO PUSH2 0x10 JUMPI PUSH1 0x0 DUP1 REVERT JUMPDEST POP PUSH2 0x2220 DUP1 PUSH2 0x20 PUSH1 0x0 CODECOPY PUSH1 0x0 RETURN INVALID PUSH1 0x80 PUSH1 0x40 MSTORE CALLVALUE DUP1 ISZERO PUSH2 0x10 JUMPI PUSH1 0x0 DUP1 REVERT JUMPDEST POP PUSH1 0x4 CALLDATASIZE LT PUSH2 0xCF JUMPI PUSH1 0x0 CALLDATALOAD PUSH1 0xE0 SHR DUP1 PUSH4 0x95E6EE92 GT PUSH2 0x8C JUMPI DUP1 PUSH4 0xB481E260 GT PUSH2 0x66 JUMPI DUP1 PUSH4 0xB481E260 EQ PUSH2 0x67F JUMPI DUP1 PUSH4 0xCEFDA0C5 EQ PUSH2 0x74E JUMPI DUP1 PUSH4 0xEF3B10EC EQ PUSH2 0x81D JUMPI DUP1 PUSH4 0xFE54F2A2 EQ PUSH2 0x98E JUMPI PUSH2 0xCF JUMP JUMPDEST DUP1 PUSH4 0x95E6EE92 EQ PUSH2 0x507 JUMPI DUP1 PUSH4 0x9D6F0337 EQ PUSH2 0x575 JUMPI DUP1 PUSH4 0xAA7B2FBB EQ PUSH2 0x5B7 JUMPI PUSH2 0xCF JUMP JUMPDEST DUP1 PUSH4 0x244F896D EQ PUSH2 0xD4 JUMPI DUP1 PUSH4 0x35452450 EQ PUSH2 0x1C0 JUMPI DUP1 PUSH4 0x5DE60042 EQ PUSH2 0x26B JUMPI DUP1 PUSH4 0x7F8F50A8 EQ PUSH2 0x2B7 JUMPI DUP1 PUSH4 0x8AF046EA EQ PUSH2 0x414 JUMPI DUP1 PUSH4 0x91D5F691 EQ PUSH2 0x456 JUMPI JUMPDEST PUSH1 0x0 DUP1 REVERT JUMPDEST PUSH2 0x182 PUSH1 0x4 DUP1 CALLDATASIZE SUB PUSH1 0xA0 DUP2 LT ISZERO PUSH2 0xEA JUMPI PUSH1 0x0 DUP1 REVERT JUMPDEST DUP2 ADD SWAP1 DUP1 DUP1 PUSH1 0x40 ADD SWAP1 PUSH1 0x2 DUP1 PUSH1 0x20 MUL PUSH1 0x40 MLOAD SWAP1 DUP2 ADD PUSH1 0x40 MSTORE DUP1 SWAP3 SWAP2 SWAP1 DUP3 PUSH1 0x2 PUSH1 0x20 MUL DUP1 DUP3 DUP5 CALLDATACOPY PUSH1 0x0 DUP2 DUP5 ADD MSTORE PUSH1 0x1F NOT PUSH1 0x1F DUP3 ADD AND SWAP1 POP DUP1 DUP4 ADD SWAP3 POP POP POP POP POP POP SWAP2 SWAP3 SWAP2 SWAP3 SWAP1 DUP1 PUSH1 0x40 ADD SWAP1 PUSH1 0x2 DUP1 PUSH1 0x20 MUL PUSH1 0x40 MLOAD SWAP1 DUP2 ADD PUSH1 0x40 MSTORE DUP1 SWAP3 SWAP2 SWAP1 DUP3 PUSH1 0x2 PUSH1 0x20 MUL DUP1 DUP3 DUP5 CALLDATACOPY PUSH1 0x0 DUP2 DUP5 ADD MSTORE PUSH1 0x1F NOT PUSH1 0x1F DUP3 ADD AND SWAP1 POP DUP1 DUP4 ADD SWAP3 POP POP POP POP POP POP SWAP2 SWAP3 SWAP2 SWAP3 SWAP1 DUP1 CALLDATALOAD SWAP1 PUSH1 0x20 ADD SWAP1 SWAP3 SWAP2 SWAP1 POP POP POP PUSH2 0xB11 JUMP JUMPDEST PUSH1 0x40 MLOAD DUP1 DUP3 PUSH1 0x2 PUSH1 0x20 MUL DUP1 DUP4 DUP4 PUSH1 0x0 JUMPDEST DUP4 DUP2 LT ISZERO PUSH2 0x1AD JUMPI DUP1 DUP3 ADD MLOAD DUP2 DUP5 ADD MSTORE PUSH1 0x20 DUP2 ADD SWAP1 POP PUSH2 0x192 JUMP JUMPDEST POP POP POP POP SWAP1 POP ADD SWAP2 POP POP PUSH1 0x40 MLOAD DUP1 SWAP2 SUB SWAP1 RETURN JUMPDEST PUSH2 0x22D PUSH1 0x4 DUP1 CALLDATASIZE SUB PUSH1 0x60 DUP2 LT ISZERO PUSH2 0x1D6 JUMPI PUSH1 0x0 DUP1 REVERT JUMPDEST DUP2 ADD SWAP1 DUP1 DUP1 PUSH1 0x40 ADD SWAP1 PUSH1 0x2 DUP1 PUSH1 0x20 MUL PUSH1 0x40 MLOAD SWAP1 DUP2 ADD PUSH1 0x40 MSTORE DUP1 SWAP3 SWAP2 SWAP1 DUP3 PUSH1 0x2 PUSH1 0x20 MUL DUP1 DUP3 DUP5 CALLDATACOPY PUSH1 0x0 DUP2 DUP5 ADD MSTORE PUSH1 0x1F NOT PUSH1 0x1F DUP3 ADD AND SWAP1 POP DUP1 DUP4 ADD SWAP3 POP POP POP POP POP POP SWAP2 SWAP3 SWAP2 SWAP3 SWAP1 DUP1 CALLDATALOAD SWAP1 PUSH1 0x20 ADD SWAP1 SWAP3 SWAP2 SWAP1 POP POP POP PUSH2 0xB2D JUMP JUMPDEST PUSH1 0x40 MLOAD DUP1 DUP3 PUSH1 0x2 PUSH1 0x20 MUL DUP1 DUP4 DUP4 PUSH1 0x0 JUMPDEST DUP4 DUP2 LT ISZERO PUSH2 0x258 JUMPI DUP1 DUP3 ADD MLOAD DUP2 DUP5 ADD MSTORE PUSH1 0x20 DUP2 ADD SWAP1 POP PUSH2 0x23D JUMP JUMPDEST POP POP POP POP SWAP1 POP ADD SWAP2 POP POP PUSH1 0x40 MLOAD DUP1 SWAP2 SUB SWAP1 RETURN JUMPDEST PUSH2 0x2A1 PUSH1 0x4 DUP1 CALLDATASIZE SUB PUSH1 0x40 DUP2 LT ISZERO PUSH2 0x281 JUMPI PUSH1 0x0 DUP1 REVERT JUMPDEST DUP2 ADD SWAP1 DUP1 DUP1 CALLDATALOAD SWAP1 PUSH1 0x20 ADD SWAP1 SWAP3 SWAP2 SWAP1 DUP1 CALLDATALOAD SWAP1 PUSH1 0x20 ADD SWAP1 SWAP3 SWAP2 SWAP1 POP POP POP PUSH2 0xB47 JUMP JUMPDEST PUSH1 0x40 MLOAD DUP1 DUP3 DUP2 MSTORE PUSH1 0x20 ADD SWAP2 POP POP PUSH1 0x40 MLOAD DUP1 SWAP2 SUB SWAP1 RETURN JUMPDEST PUSH2 0x3FE PUSH1 0x4 DUP1 CALLDATASIZE SUB PUSH2 0x120 DUP2 LT ISZERO PUSH2 0x2CE JUMPI PUSH1 0x0 DUP1 REVERT JUMPDEST DUP2 ADD SWAP1 DUP1 DUP1 PUSH1 0x40 ADD SWAP1 PUSH1 0x2 DUP1 PUSH1 0x20 MUL PUSH1 0x40 MLOAD SWAP1 DUP2 ADD PUSH1 0x40 MSTORE DUP1 SWAP3 SWAP2 SWAP1 DUP3 PUSH1 0x2 PUSH1 0x20 MUL DUP1 DUP3 DUP5 CALLDATACOPY PUSH1 0x0 DUP2 DUP5 ADD MSTORE PUSH1 0x1F NOT PUSH1 0x1F DUP3 ADD AND SWAP1 POP DUP1 DUP4 ADD SWAP3 POP POP POP POP POP POP SWAP2 SWAP3 SWAP2 SWAP3 SWAP1 DUP1 PUSH1 0x40 ADD SWAP1 PUSH1 0x2 DUP1 PUSH1 0x20 MUL PUSH1 0x40 MLOAD SWAP1 DUP2 ADD PUSH1 0x40 MSTORE DUP1 SWAP3 SWAP2 SWAP1 DUP3 PUSH1 0x2 PUSH1 0x20 MUL DUP1 DUP3 DUP5 CALLDATACOPY PUSH1 0x0 DUP2 DUP5 ADD MSTORE PUSH1 0x1F NOT PUSH1 0x1F DUP3 ADD AND SWAP1 POP DUP1 DUP4 ADD SWAP3 POP POP POP POP POP POP SWAP2 SWAP3 SWAP2 SWAP3 SWAP1 DUP1 PUSH1 0x40 ADD SWAP1 PUSH1 0x2 DUP1 PUSH1 0x20 MUL PUSH1 0x40 MLOAD SWAP1 DUP2 ADD PUSH1 0x40 MSTORE DUP1 SWAP3 SWAP2 SWAP1 DUP3 PUSH1 0x2 PUSH1 0x20 MUL DUP1 DUP3 DUP5 CALLDATACOPY PUSH1 0x0 DUP2 DUP5 ADD MSTORE PUSH1 0x1F NOT PUSH1 0x1F DUP3 ADD AND SWAP1 POP DUP1 DUP4 ADD SWAP3 POP POP POP POP POP POP SWAP2 SWAP3 SWAP2 SWAP3 SWAP1 DUP1 CALLDATALOAD PUSH20 0xFFFFFFFFFFFFFFFFFFFFFFFFFFFFFFFFFFFFFFFF AND SWAP1 PUSH1 0x20 ADD SWAP1 SWAP3 SWAP2 SWAP1 DUP1 PUSH1 0x40 ADD SWAP1 PUSH1 0x2 DUP1 PUSH1 0x20 MUL PUSH1 0x40 MLOAD SWAP1 DUP2 ADD PUSH1 0x40 MSTORE DUP1 SWAP3 SWAP2 SWAP1 DUP3 PUSH1 0x2 PUSH1 0x20 MUL DUP1 DUP3 DUP5 CALLDATACOPY PUSH1 0x0 DUP2 DUP5 ADD MSTORE PUSH1 0x1F NOT PUSH1 0x1F DUP3 ADD AND SWAP1 POP DUP1 DUP4 ADD SWAP3 POP POP POP POP POP POP SWAP2 SWAP3 SWAP2 SWAP3 SWAP1 POP POP POP PUSH2 0xB5B JUMP JUMPDEST PUSH1 0x40 MLOAD DUP1 DUP3 DUP2 MSTORE PUSH1 0x20 ADD SWAP2 POP POP PUSH1 0x40 MLOAD DUP1 SWAP2 SUB SWAP1 RETURN JUMPDEST PUSH2 0x440 PUSH1 0x4 DUP1 CALLDATASIZE SUB PUSH1 0x20 DUP2 LT ISZERO PUSH2 0x42A JUMPI PUSH1 0x0 DUP1 REVERT JUMPDEST DUP2 ADD SWAP1 DUP1 DUP1 CALLDATALOAD SWAP1 PUSH1 0x20 ADD SWAP1 SWAP3 SWAP2 SWAP1 POP POP POP PUSH2 0xB75 JUMP JUMPDEST PUSH1 0x40 MLOAD DUP1 DUP3 DUP2 MSTORE PUSH1 0x20 ADD SWAP2 POP POP PUSH1 0x40 MLOAD DUP1 SWAP2 SUB SWAP1 RETURN JUMPDEST PUSH2 0x4ED PUSH1 0x4 DUP1 CALLDATASIZE SUB PUSH1 0xA0 DUP2 LT ISZERO PUSH2 0x46C JUMPI PUSH1 0x0 DUP1 REVERT JUMPDEST DUP2 ADD SWAP1 DUP1 DUP1 CALLDATALOAD SWAP1 PUSH1 0x20 ADD SWAP1 SWAP3 SWAP2 SWAP1 DUP1 PUSH1 0x40 ADD SWAP1 PUSH1 0x2 DUP1 PUSH1 0x20 MUL PUSH1 0x40 MLOAD SWAP1 DUP2 ADD PUSH1 0x40 MSTORE DUP1 SWAP3 SWAP2 SWAP1 DUP3 PUSH1 0x2 PUSH1 0x20 MUL DUP1 DUP3 DUP5 CALLDATACOPY PUSH1 0x0 DUP2 DUP5 ADD MSTORE PUSH1 0x1F NOT PUSH1 0x1F DUP3 ADD AND SWAP1 POP DUP1 DUP4 ADD SWAP3 POP POP POP POP POP POP SWAP2 SWAP3 SWAP2 SWAP3 SWAP1 DUP1 CALLDATALOAD SWAP1 PUSH1 0x20 ADD SWAP1 SWAP3 SWAP2 SWAP1 DUP1 CALLDATALOAD PUSH20 0xFFFFFFFFFFFFFFFFFFFFFFFFFFFFFFFFFFFFFFFF AND SWAP1 PUSH1 0x20 ADD SWAP1 SWAP3 SWAP2 SWAP1 POP POP POP PUSH2 0xB87 JUMP JUMPDEST PUSH1 0x40 MLOAD DUP1 DUP3 ISZERO ISZERO ISZERO ISZERO DUP2 MSTORE PUSH1 0x20 ADD SWAP2 POP POP PUSH1 0x40 MLOAD DUP1 SWAP2 SUB SWAP1 RETURN JUMPDEST PUSH2 0x551 PUSH1 0x4 DUP1 CALLDATASIZE SUB PUSH1 0x80 DUP2 LT ISZERO PUSH2 0x51D JUMPI PUSH1 0x0 DUP1 REVERT JUMPDEST DUP2 ADD SWAP1 DUP1 DUP1 CALLDATALOAD SWAP1 PUSH1 0x20 ADD SWAP1 SWAP3 SWAP2 SWAP1 DUP1 CALLDATALOAD SWAP1 PUSH1 0x20 ADD SWAP1 SWAP3 SWAP2 SWAP1 DUP1 CALLDATALOAD SWAP1 PUSH1 0x20 ADD SWAP1 SWAP3 SWAP2 SWAP1 DUP1 CALLDATALOAD SWAP1 PUSH1 0x20 ADD SWAP1 SWAP3 SWAP2 SWAP1 POP POP POP PUSH2 0xB9F JUMP JUMPDEST PUSH1 0x40 MLOAD DUP1 DUP5 DUP2 MSTORE PUSH1 0x20 ADD DUP4 DUP2 MSTORE PUSH1 0x20 ADD DUP3 DUP2 MSTORE PUSH1 0x20 ADD SWAP4 POP POP POP POP PUSH1 0x40 MLOAD DUP1 SWAP2 SUB SWAP1 RETURN JUMPDEST PUSH2 0x5A1 PUSH1 0x4 DUP1 CALLDATASIZE SUB PUSH1 0x20 DUP2 LT ISZERO PUSH2 0x58B JUMPI PUSH1 0x0 DUP1 REVERT JUMPDEST DUP2 ADD SWAP1 DUP1 DUP1 CALLDATALOAD SWAP1 PUSH1 0x20 ADD SWAP1 SWAP3 SWAP2 SWAP1 POP POP POP PUSH2 0xBC0 JUMP JUMPDEST PUSH1 0x40 MLOAD DUP1 DUP3 DUP2 MSTORE PUSH1 0x20 ADD SWAP2 POP POP PUSH1 0x40 MLOAD DUP1 SWAP2 SUB SWAP1 RETURN JUMPDEST PUSH2 0x665 PUSH1 0x4 DUP1 CALLDATASIZE SUB PUSH1 0xA0 DUP2 LT ISZERO PUSH2 0x5CD JUMPI PUSH1 0x0 DUP1 REVERT JUMPDEST DUP2 ADD SWAP1 DUP1 DUP1 PUSH1 0x40 ADD SWAP1 PUSH1 0x2 DUP1 PUSH1 0x20 MUL PUSH1 0x40 MLOAD SWAP1 DUP2 ADD PUSH1 0x40 MSTORE DUP1 SWAP3 SWAP2 SWAP1 DUP3 PUSH1 0x2 PUSH1 0x20 MUL DUP1 DUP3 DUP5 CALLDATACOPY PUSH1 0x0 DUP2 DUP5 ADD MSTORE PUSH1 0x1F NOT PUSH1 0x1F DUP3 ADD AND SWAP1 POP DUP1 DUP4 ADD SWAP3 POP POP POP POP POP POP SWAP2 SWAP3 SWAP2 SWAP3 SWAP1 DUP1 CALLDATALOAD SWAP1 PUSH1 0x20 ADD SWAP1 SWAP3 SWAP2 SWAP1 DUP1 PUSH1 0x40 ADD SWAP1 PUSH1 0x2 DUP1 PUSH1 0x20 MUL PUSH1 0x40 MLOAD SWAP1 DUP2 ADD PUSH1 0x40 MSTORE DUP1 SWAP3 SWAP2 SWAP1 DUP3 PUSH1 0x2 PUSH1 0x20 MUL DUP1 DUP3 DUP5 CALLDATACOPY PUSH1 0x0 DUP2 DUP5 ADD MSTORE PUSH1 0x1F NOT PUSH1 0x1F DUP3 ADD AND SWAP1 POP DUP1 DUP4 ADD SWAP3 POP POP POP POP POP POP SWAP2 SWAP3 SWAP2 SWAP3 SWAP1 POP POP POP PUSH2 0xBD2 JUMP JUMPDEST PUSH1 0x40 MLOAD DUP1 DUP3 ISZERO ISZERO ISZERO ISZERO DUP2 MSTORE PUSH1 0x20 ADD SWAP2 POP POP PUSH1 0x40 MLOAD DUP1 SWAP2 SUB SWAP1 RETURN JUMPDEST PUSH2 0x738 PUSH1 0x4 DUP1 CALLDATASIZE SUB PUSH1 0x20 DUP2 LT ISZERO PUSH2 0x695 JUMPI PUSH1 0x0 DUP1 REVERT JUMPDEST DUP2 ADD SWAP1 DUP1 DUP1 CALLDATALOAD SWAP1 PUSH1 0x20 ADD SWAP1 PUSH5 0x100000000 DUP2 GT ISZERO PUSH2 0x6B2 JUMPI PUSH1 0x0 DUP1 REVERT JUMPDEST DUP3 ADD DUP4 PUSH1 0x20 DUP3 ADD GT ISZERO PUSH2 0x6C4 JUMPI PUSH1 0x0 DUP1 REVERT JUMPDEST DUP1 CALLDATALOAD SWAP1 PUSH1 0x20 ADD SWAP2 DUP5 PUSH1 0x1 DUP4 MUL DUP5 ADD GT PUSH5 0x100000000 DUP4 GT OR ISZERO PUSH2 0x6E6 JUMPI PUSH1 0x0 DUP1 REVERT JUMPDEST SWAP2 SWAP1 DUP1 DUP1 PUSH1 0x1F ADD PUSH1 0x20 DUP1 SWAP2 DIV MUL PUSH1 0x20 ADD PUSH1 0x40 MLOAD SWAP1 DUP2 ADD PUSH1 0x40 MSTORE DUP1 SWAP4 SWAP3 SWAP2 SWAP1 DUP2 DUP2 MSTORE PUSH1 0x20 ADD DUP4 DUP4 DUP1 DUP3 DUP5 CALLDATACOPY PUSH1 0x0 DUP2 DUP5 ADD MSTORE PUSH1 0x1F NOT PUSH1 0x1F DUP3 ADD AND SWAP1 POP DUP1 DUP4 ADD SWAP3 POP POP POP POP POP POP POP SWAP2 SWAP3 SWAP2 SWAP3 SWAP1 POP POP POP PUSH2 0xBE8 JUMP JUMPDEST PUSH1 0x40 MLOAD DUP1 DUP3 DUP2 MSTORE PUSH1 0x20 ADD SWAP2 POP POP PUSH1 0x40 MLOAD DUP1 SWAP2 SUB SWAP1 RETURN JUMPDEST PUSH2 0x807 PUSH1 0x4 DUP1 CALLDATASIZE SUB PUSH1 0x20 DUP2 LT ISZERO PUSH2 0x764 JUMPI PUSH1 0x0 DUP1 REVERT JUMPDEST DUP2 ADD SWAP1 DUP1 DUP1 CALLDATALOAD SWAP1 PUSH1 0x20 ADD SWAP1 PUSH5 0x100000000 DUP2 GT ISZERO PUSH2 0x781 JUMPI PUSH1 0x0 DUP1 REVERT JUMPDEST DUP3 ADD DUP4 PUSH1 0x20 DUP3 ADD GT ISZERO PUSH2 0x793 JUMPI PUSH1 0x0 DUP1 REVERT JUMPDEST DUP1 CALLDATALOAD SWAP1 PUSH1 0x20 ADD SWAP2 DUP5 PUSH1 0x1 DUP4 MUL DUP5 ADD GT PUSH5 0x100000000 DUP4 GT OR ISZERO PUSH2 0x7B5 JUMPI PUSH1 0x0 DUP1 REVERT JUMPDEST SWAP2 SWAP1 DUP1 DUP1 PUSH1 0x1F ADD PUSH1 0x20 DUP1 SWAP2 DIV MUL PUSH1 0x20 ADD PUSH1 0x40 MLOAD SWAP1 DUP2 ADD PUSH1 0x40 MSTORE DUP1 SWAP4 SWAP3 SWAP2 SWAP1 DUP2 DUP2 MSTORE PUSH1 0x20 ADD DUP4 DUP4 DUP1 DUP3 DUP5 CALLDATACOPY PUSH1 0x0 DUP2 DUP5 ADD MSTORE PUSH1 0x1F NOT PUSH1 0x1F DUP3 ADD AND SWAP1 POP DUP1 DUP4 ADD SWAP3 POP POP POP POP POP POP POP SWAP2 SWAP3 SWAP2 SWAP3 SWAP1 POP POP POP PUSH2 0xBFA JUMP JUMPDEST PUSH1 0x40 MLOAD DUP1 DUP3 DUP2 MSTORE PUSH1 0x20 ADD SWAP2 POP POP PUSH1 0x40 MLOAD DUP1 SWAP2 SUB SWAP1 RETURN JUMPDEST PUSH2 0x98C PUSH1 0x4 DUP1 CALLDATASIZE SUB PUSH2 0x1A0 DUP2 LT ISZERO PUSH2 0x834 JUMPI PUSH1 0x0 DUP1 REVERT JUMPDEST DUP2 ADD SWAP1 DUP1 DUP1 PUSH1 0x40 ADD SWAP1 PUSH1 0x2 DUP1 PUSH1 0x20 MUL PUSH1 0x40 MLOAD SWAP1 DUP2 ADD PUSH1 0x40 MSTORE DUP1 SWAP3 SWAP2 SWAP1 DUP3 PUSH1 0x2 PUSH1 0x20 MUL DUP1 DUP3 DUP5 CALLDATACOPY PUSH1 0x0 DUP2 DUP5 ADD MSTORE PUSH1 0x1F NOT PUSH1 0x1F DUP3 ADD AND SWAP1 POP DUP1 DUP4 ADD SWAP3 POP POP POP POP POP POP SWAP2 SWAP3 SWAP2 SWAP3 SWAP1 DUP1 PUSH1 0x40 ADD SWAP1 PUSH1 0x2 DUP1 PUSH1 0x20 MUL PUSH1 0x40 MLOAD SWAP1 DUP2 ADD PUSH1 0x40 MSTORE DUP1 SWAP3 SWAP2 SWAP1 DUP3 PUSH1 0x2 PUSH1 0x20 MUL DUP1 DUP3 DUP5 CALLDATACOPY PUSH1 0x0 DUP2 DUP5 ADD MSTORE PUSH1 0x1F NOT PUSH1 0x1F DUP3 ADD AND SWAP1 POP DUP1 DUP4 ADD SWAP3 POP POP POP POP POP POP SWAP2 SWAP3 SWAP2 SWAP3 SWAP1 DUP1 CALLDATALOAD SWAP1 PUSH1 0x20 ADD SWAP1 SWAP3 SWAP2 SWAP1 DUP1 CALLDATALOAD SWAP1 PUSH1 0x20 ADD SWAP1 SWAP3 SWAP2 SWAP1 DUP1 CALLDATALOAD SWAP1 PUSH1 0x20 ADD SWAP1 SWAP3 SWAP2 SWAP1 DUP1 CALLDATALOAD PUSH20 0xFFFFFFFFFFFFFFFFFFFFFFFFFFFFFFFFFFFFFFFF AND SWAP1 PUSH1 0x20 ADD SWAP1 SWAP3 SWAP2 SWAP1 DUP1 PUSH1 0x40 ADD SWAP1 PUSH1 0x2 DUP1 PUSH1 0x20 MUL PUSH1 0x40 MLOAD SWAP1 DUP2 ADD PUSH1 0x40 MSTORE DUP1 SWAP3 SWAP2 SWAP1 DUP3 PUSH1 0x2 PUSH1 0x20 MUL DUP1 DUP3 DUP5 CALLDATACOPY PUSH1 0x0 DUP2 DUP5 ADD MSTORE PUSH1 0x1F NOT PUSH1 0x1F DUP3 ADD AND SWAP1 POP DUP1 DUP4 ADD SWAP3 POP POP POP POP POP POP SWAP2 SWAP3 SWAP2 SWAP3 SWAP1 DUP1 PUSH1 0x40 ADD SWAP1 PUSH1 0x2 DUP1 PUSH1 0x20 MUL PUSH1 0x40 MLOAD SWAP1 DUP2 ADD PUSH1 0x40 MSTORE DUP1 SWAP3 SWAP2 SWAP1 DUP3 PUSH1 0x2 PUSH1 0x20 MUL DUP1 DUP3 DUP5 CALLDATACOPY PUSH1 0x0 DUP2 DUP5 ADD MSTORE PUSH1 0x1F NOT PUSH1 0x1F DUP3 ADD AND SWAP1 POP DUP1 DUP4 ADD SWAP3 POP POP POP POP POP POP SWAP2 SWAP3 SWAP2 SWAP3 SWAP1 DUP1 CALLDATALOAD SWAP1 PUSH1 0x20 ADD SWAP1 SWAP3 SWAP2 SWAP1 POP POP POP PUSH2 0xC0C JUMP JUMPDEST STOP JUMPDEST PUSH2 0xAD3 PUSH1 0x4 DUP1 CALLDATASIZE SUB PUSH2 0x160 DUP2 LT ISZERO PUSH2 0x9A5 JUMPI PUSH1 0x0 DUP1 REVERT JUMPDEST DUP2 ADD SWAP1 DUP1 DUP1 CALLDATALOAD SWAP1 PUSH1 0x20 ADD SWAP1 SWAP3 SWAP2 SWAP1 DUP1 PUSH1 0x40 ADD SWAP1 PUSH1 0x2 DUP1 PUSH1 0x20 MUL PUSH1 0x40 MLOAD SWAP1 DUP2 ADD PUSH1 0x40 MSTORE DUP1 SWAP3 SWAP2 SWAP1 DUP3 PUSH1 0x2 PUSH1 0x20 MUL DUP1 DUP3 DUP5 CALLDATACOPY PUSH1 0x0 DUP2 DUP5 ADD MSTORE PUSH1 0x1F NOT PUSH1 0x1F DUP3 ADD AND SWAP1 POP DUP1 DUP4 ADD SWAP3 POP POP POP POP POP POP SWAP2 SWAP3 SWAP2 SWAP3 SWAP1 DUP1 PUSH1 0x40 ADD SWAP1 PUSH1 0x2 DUP1 PUSH1 0x20 MUL PUSH1 0x40 MLOAD SWAP1 DUP2 ADD PUSH1 0x40 MSTORE DUP1 SWAP3 SWAP2 SWAP1 DUP3 PUSH1 0x2 PUSH1 0x20 MUL DUP1 DUP3 DUP5 CALLDATACOPY PUSH1 0x0 DUP2 DUP5 ADD MSTORE PUSH1 0x1F NOT PUSH1 0x1F DUP3 ADD AND SWAP1 POP DUP1 DUP4 ADD SWAP3 POP POP POP POP POP POP SWAP2 SWAP3 SWAP2 SWAP3 SWAP1 DUP1 CALLDATALOAD SWAP1 PUSH1 0x20 ADD SWAP1 SWAP3 SWAP2 SWAP1 DUP1 PUSH1 0x40 ADD SWAP1 PUSH1 0x2 DUP1 PUSH1 0x20 MUL PUSH1 0x40 MLOAD SWAP1 DUP2 ADD PUSH1 0x40 MSTORE DUP1 SWAP3 SWAP2 SWAP1 DUP3 PUSH1 0x2 PUSH1 0x20 MUL DUP1 DUP3 DUP5 CALLDATACOPY PUSH1 0x0 DUP2 DUP5 ADD MSTORE PUSH1 0x1F NOT PUSH1 0x1F DUP3 ADD AND SWAP1 POP DUP1 DUP4 ADD SWAP3 POP POP POP POP POP POP SWAP2 SWAP3 SWAP2 SWAP3 SWAP1 DUP1 PUSH1 0x40 ADD SWAP1 PUSH1 0x2 DUP1 PUSH1 0x20 MUL PUSH1 0x40 MLOAD SWAP1 DUP2 ADD PUSH1 0x40 MSTORE DUP1 SWAP3 SWAP2 SWAP1 DUP3 PUSH1 0x2 PUSH1 0x20 MUL DUP1 DUP3 DUP5 CALLDATACOPY PUSH1 0x0 DUP2 DUP5 ADD MSTORE PUSH1 0x1F NOT PUSH1 0x1F DUP3 ADD AND SWAP1 POP DUP1 DUP4 ADD SWAP3 POP POP POP POP POP POP SWAP2 SWAP3 SWAP2 SWAP3 SWAP1 DUP1 CALLDATALOAD SWAP1 PUSH1 0x20 ADD SWAP1 SWAP3 SWAP2 SWAP1 POP POP POP PUSH2 0xC28 JUMP JUMPDEST PUSH1 0x40 MLOAD DUP1 DUP3 PUSH1 0x2 PUSH1 0x20 MUL DUP1 DUP4 DUP4 PUSH1 0x0 JUMPDEST DUP4 DUP2 LT ISZERO PUSH2 0xAFE JUMPI DUP1 DUP3 ADD MLOAD DUP2 DUP5 ADD MSTORE PUSH1 0x20 DUP2 ADD SWAP1 POP PUSH2 0xAE3 JUMP JUMPDEST POP POP POP POP SWAP1 POP ADD SWAP2 POP POP PUSH1 0x40 MLOAD DUP1 SWAP2 SUB SWAP1 RETURN JUMPDEST PUSH2 0xB19 PUSH2 0x211F JUMP JUMPDEST PUSH2 0xB24 DUP5 DUP5 DUP5 PUSH2 0xC4C JUMP JUMPDEST SWAP1 POP SWAP4 SWAP3 POP POP POP JUMP JUMPDEST PUSH2 0xB35 PUSH2 0x211F JUMP JUMPDEST PUSH2 0xB3F DUP4 DUP4 PUSH2 0xDCA JUMP JUMPDEST SWAP1 POP SWAP3 SWAP2 POP POP JUMP JUMPDEST PUSH1 0x0 PUSH2 0xB53 DUP4 DUP4 PUSH2 0xE89 JUMP JUMPDEST SWAP1 POP SWAP3 SWAP2 POP POP JUMP JUMPDEST PUSH1 0x0 PUSH2 0xB6A DUP7 DUP7 DUP7 DUP7 DUP7 PUSH2 0xFEB JUMP JUMPDEST SWAP1 POP SWAP6 SWAP5 POP POP POP POP POP JUMP JUMPDEST PUSH1 0x0 PUSH2 0xB80 DUP3 PUSH2 0x111A JUMP JUMPDEST SWAP1 POP SWAP2 SWAP1 POP JUMP JUMPDEST PUSH1 0x0 PUSH2 0xB95 DUP6 DUP6 DUP6 DUP6 PUSH2 0x1154 JUMP JUMPDEST SWAP1 POP SWAP5 SWAP4 POP POP POP POP JUMP JUMPDEST PUSH1 0x0 DUP1 PUSH1 0x0 PUSH2 0xBB0 DUP8 DUP8 DUP8 DUP8 PUSH2 0x138C JUMP JUMPDEST SWAP3 POP SWAP3 POP SWAP3 POP SWAP5 POP SWAP5 POP SWAP5 SWAP2 POP POP JUMP JUMPDEST PUSH1 0x0 PUSH2 0xBCB DUP3 PUSH2 0x1560 JUMP JUMPDEST SWAP1 POP SWAP2 SWAP1 POP JUMP JUMPDEST PUSH1 0x0 PUSH2 0xBDF DUP5 DUP5 DUP5 PUSH2 0x15EE JUMP JUMPDEST SWAP1 POP SWAP4 SWAP3 POP POP POP JUMP JUMPDEST PUSH1 0x0 PUSH2 0xBF3 DUP3 PUSH2 0x1779 JUMP JUMPDEST SWAP1 POP SWAP2 SWAP1 POP JUMP JUMPDEST PUSH1 0x0 PUSH2 0xC05 DUP3 PUSH2 0x17E6 JUMP JUMPDEST SWAP1 POP SWAP2 SWAP1 POP JUMP JUMPDEST PUSH2 0xC1D DUP10 DUP10 DUP10 DUP10 DUP10 DUP10 DUP10 DUP10 DUP10 PUSH2 0x19B6 JUMP JUMPDEST POP POP POP POP POP POP POP POP POP JUMP JUMPDEST PUSH2 0xC30 PUSH2 0x211F JUMP JUMPDEST PUSH2 0xC3F DUP9 DUP9 DUP9 DUP9 DUP9 DUP9 DUP9 PUSH2 0x1CE1 JUMP JUMPDEST SWAP1 POP SWAP8 SWAP7 POP POP POP POP POP POP POP JUMP JUMPDEST PUSH2 0xC54 PUSH2 0x211F JUMP JUMPDEST PUSH1 0x0 DUP1 PUSH1 0x0 PUSH2 0xCA9 DUP8 PUSH1 0x0 PUSH1 0x2 DUP2 LT PUSH2 0xC69 JUMPI INVALID JUMPDEST PUSH1 0x20 MUL ADD MLOAD DUP9 PUSH1 0x1 PUSH1 0x2 DUP2 LT PUSH2 0xC7B JUMPI INVALID JUMPDEST PUSH1 0x20 MUL ADD MLOAD DUP9 PUSH1 0x0 PUSH1 0x2 DUP2 LT PUSH2 0xC8D JUMPI INVALID JUMPDEST PUSH1 0x20 MUL ADD MLOAD DUP10 PUSH1 0x1 PUSH1 0x2 DUP2 LT PUSH2 0xC9F JUMPI INVALID JUMPDEST PUSH1 0x20 MUL ADD MLOAD PUSH2 0x138C JUMP JUMPDEST DUP1 SWAP4 POP DUP2 SWAP5 POP DUP3 SWAP6 POP POP POP POP PUSH1 0x1 PUSH32 0xFFFFFFFFFFFFFFFFFFFFFFFFFFFFFFFFFFFFFFFFFFFFFFFFFFFFFFFEFFFFFC2F DUP1 PUSH2 0xCDF JUMPI INVALID JUMPDEST DUP7 DUP4 MULMOD EQ PUSH2 0xD55 JUMPI PUSH1 0x40 MLOAD PUSH32 0x8C379A000000000000000000000000000000000000000000000000000000000 DUP2 MSTORE PUSH1 0x4 ADD DUP1 DUP1 PUSH1 0x20 ADD DUP3 DUP2 SUB DUP3 MSTORE PUSH1 0x19 DUP2 MSTORE PUSH1 0x20 ADD DUP1 PUSH32 0x696E765A206D75737420626520696E7665727365206F66207A00000000000000 DUP2 MSTORE POP PUSH1 0x20 ADD SWAP2 POP POP PUSH1 0x40 MLOAD DUP1 SWAP2 SUB SWAP1 REVERT JUMPDEST PUSH1 0x40 MLOAD DUP1 PUSH1 0x40 ADD PUSH1 0x40 MSTORE DUP1 PUSH32 0xFFFFFFFFFFFFFFFFFFFFFFFFFFFFFFFFFFFFFFFFFFFFFFFFFFFFFFFEFFFFFC2F DUP1 PUSH2 0xD88 JUMPI INVALID JUMPDEST DUP8 DUP7 MULMOD DUP2 MSTORE PUSH1 0x20 ADD PUSH32 0xFFFFFFFFFFFFFFFFFFFFFFFFFFFFFFFFFFFFFFFFFFFFFFFFFFFFFFFEFFFFFC2F DUP1 PUSH2 0xDB8 JUMPI INVALID JUMPDEST DUP8 DUP6 MULMOD DUP2 MSTORE POP SWAP4 POP POP POP POP SWAP4 SWAP3 POP POP POP JUMP JUMPDEST PUSH2 0xDD2 PUSH2 0x211F JUMP JUMPDEST PUSH2 0xE33 PUSH1 0x1 DUP5 DUP5 PUSH1 0x40 MLOAD PUSH1 0x20 ADD DUP1 DUP5 DUP2 MSTORE PUSH1 0x20 ADD DUP4 PUSH1 0x2 PUSH1 0x20 MUL DUP1 DUP4 DUP4 PUSH1 0x0 JUMPDEST DUP4 DUP2 LT ISZERO PUSH2 0xE0D JUMPI DUP1 DUP3 ADD MLOAD DUP2 DUP5 ADD MSTORE PUSH1 0x20 DUP2 ADD SWAP1 POP PUSH2 0xDF2 JUMP JUMPDEST POP POP POP POP SWAP1 POP ADD DUP3 DUP2 MSTORE PUSH1 0x20 ADD SWAP4 POP POP POP POP PUSH1 0x40 MLOAD PUSH1 0x20 DUP2 DUP4 SUB SUB DUP2 MSTORE SWAP1 PUSH1 0x40 MSTORE PUSH2 0x1E85 JUMP JUMPDEST SWAP1 POP JUMPDEST PUSH2 0xE3F DUP2 PUSH2 0x1F58 JUMP JUMPDEST PUSH2 0xE83 JUMPI PUSH2 0xE7C DUP2 PUSH1 0x0 PUSH1 0x2 DUP2 LT PUSH2 0xE53 JUMPI INVALID JUMPDEST PUSH1 0x20 MUL ADD MLOAD PUSH1 0x40 MLOAD PUSH1 0x20 ADD DUP1 DUP3 DUP2 MSTORE PUSH1 0x20 ADD SWAP2 POP POP PUSH1 0x40 MLOAD PUSH1 0x20 DUP2 DUP4 SUB SUB DUP2 MSTORE SWAP1 PUSH1 0x40 MSTORE PUSH2 0x1E85 JUMP JUMPDEST SWAP1 POP PUSH2 0xE36 JUMP JUMPDEST SWAP3 SWAP2 POP POP JUMP JUMPDEST PUSH1 0x0 DUP1 PUSH2 0xE94 PUSH2 0x2141 JUMP JUMPDEST PUSH1 0x20 DUP2 PUSH1 0x0 PUSH1 0x6 DUP2 LT PUSH2 0xEA3 JUMPI INVALID JUMPDEST PUSH1 0x20 MUL ADD DUP2 DUP2 MSTORE POP POP PUSH1 0x20 DUP2 PUSH1 0x1 PUSH1 0x6 DUP2 LT PUSH2 0xEBB JUMPI INVALID JUMPDEST PUSH1 0x20 MUL ADD DUP2 DUP2 MSTORE POP POP PUSH1 0x20 DUP2 PUSH1 0x2 PUSH1 0x6 DUP2 LT PUSH2 0xED3 JUMPI INVALID JUMPDEST PUSH1 0x20 MUL ADD DUP2 DUP2 MSTORE POP POP DUP5 DUP2 PUSH1 0x3 PUSH1 0x6 DUP2 LT PUSH2 0xEEA JUMPI INVALID JUMPDEST PUSH1 0x20 MUL ADD DUP2 DUP2 MSTORE POP POP DUP4 DUP2 PUSH1 0x4 PUSH1 0x6 DUP2 LT PUSH2 0xF01 JUMPI INVALID JUMPDEST PUSH1 0x20 MUL ADD DUP2 DUP2 MSTORE POP POP PUSH32 0xFFFFFFFFFFFFFFFFFFFFFFFFFFFFFFFFFFFFFFFFFFFFFFFFFFFFFFFEFFFFFC2F DUP2 PUSH1 0x5 PUSH1 0x6 DUP2 LT PUSH2 0xF38 JUMPI INVALID JUMPDEST PUSH1 0x20 MUL ADD DUP2 DUP2 MSTORE POP POP PUSH2 0xF49 PUSH2 0x2163 JUMP JUMPDEST PUSH1 0x20 DUP2 PUSH1 0xC0 DUP5 PUSH1 0x5 PUSH1 0x0 NOT STATICCALL SWAP3 POP PUSH1 0x0 DUP4 EQ ISZERO PUSH2 0xFCE JUMPI PUSH1 0x40 MLOAD PUSH32 0x8C379A000000000000000000000000000000000000000000000000000000000 DUP2 MSTORE PUSH1 0x4 ADD DUP1 DUP1 PUSH1 0x20 ADD DUP3 DUP2 SUB DUP3 MSTORE PUSH1 0x12 DUP2 MSTORE PUSH1 0x20 ADD DUP1 PUSH32 0x6269674D6F64457870206661696C757265210000000000000000000000000000 DUP2 MSTORE POP PUSH1 0x20 ADD SWAP2 POP POP PUSH1 0x40 MLOAD DUP1 SWAP2 SUB SWAP1 REVERT JUMPDEST DUP1 PUSH1 0x0 PUSH1 0x1 DUP2 LT PUSH2 0xFDB JUMPI INVALID JUMPDEST PUSH1 0x20 MUL ADD MLOAD SWAP4 POP POP POP POP SWAP3 SWAP2 POP POP JUMP JUMPDEST PUSH1 0x0 PUSH1 0x2 DUP7 DUP7 DUP7 DUP6 DUP8 PUSH1 0x40 MLOAD PUSH1 0x20 ADD DUP1 DUP8 DUP2 MSTORE PUSH1 0x20 ADD DUP7 PUSH1 0x2 PUSH1 0x20 MUL DUP1 DUP4 DUP4 PUSH1 0x0 JUMPDEST DUP4 DUP2 LT ISZERO PUSH2 0x1028 JUMPI DUP1 DUP3 ADD MLOAD DUP2 DUP5 ADD MSTORE PUSH1 0x20 DUP2 ADD SWAP1 POP PUSH2 0x100D JUMP JUMPDEST POP POP POP POP SWAP1 POP ADD DUP6 PUSH1 0x2 PUSH1 0x20 MUL DUP1 DUP4 DUP4 PUSH1 0x0 JUMPDEST DUP4 DUP2 LT ISZERO PUSH2 0x1056 JUMPI DUP1 DUP3 ADD MLOAD DUP2 DUP5 ADD MSTORE PUSH1 0x20 DUP2 ADD SWAP1 POP PUSH2 0x103B JUMP JUMPDEST POP POP POP POP SWAP1 POP ADD DUP5 PUSH1 0x2 PUSH1 0x20 MUL DUP1 DUP4 DUP4 PUSH1 0x0 JUMPDEST DUP4 DUP2 LT ISZERO PUSH2 0x1084 JUMPI DUP1 DUP3 ADD MLOAD DUP2 DUP5 ADD MSTORE PUSH1 0x20 DUP2 ADD SWAP1 POP PUSH2 0x1069 JUMP JUMPDEST POP POP POP POP SWAP1 POP ADD DUP4 PUSH1 0x2 PUSH1 0x20 MUL DUP1 DUP4 DUP4 PUSH1 0x0 JUMPDEST DUP4 DUP2 LT ISZERO PUSH2 0x10B2 JUMPI DUP1 DUP3 ADD MLOAD DUP2 DUP5 ADD MSTORE PUSH1 0x20 DUP2 ADD SWAP1 POP PUSH2 0x1097 JUMP JUMPDEST POP POP POP POP SWAP1 POP ADD DUP3 PUSH20 0xFFFFFFFFFFFFFFFFFFFFFFFFFFFFFFFFFFFFFFFF AND PUSH20 0xFFFFFFFFFFFFFFFFFFFFFFFFFFFFFFFFFFFFFFFF AND PUSH1 0x60 SHL DUP2 MSTORE PUSH1 0x14 ADD SWAP7 POP POP POP POP POP POP POP PUSH1 0x40 MLOAD PUSH1 0x20 DUP2 DUP4 SUB SUB DUP2 MSTORE SWAP1 PUSH1 0x40 MSTORE DUP1 MLOAD SWAP1 PUSH1 0x20 ADD KECCAK256 PUSH1 0x0 SHR SWAP1 POP SWAP6 SWAP5 POP POP POP POP POP JUMP JUMPDEST PUSH1 0x0 PUSH2 0x114D DUP3 PUSH1 0x2 PUSH1 0x1 PUSH32 0xFFFFFFFFFFFFFFFFFFFFFFFFFFFFFFFFFFFFFFFFFFFFFFFFFFFFFFFEFFFFFC2F ADD SWAP1 SHR PUSH2 0xE89 JUMP JUMPDEST SWAP1 POP SWAP2 SWAP1 POP JUMP JUMPDEST PUSH1 0x0 DUP1 PUSH20 0xFFFFFFFFFFFFFFFFFFFFFFFFFFFFFFFFFFFFFFFF AND DUP3 PUSH20 0xFFFFFFFFFFFFFFFFFFFFFFFFFFFFFFFFFFFFFFFF AND EQ ISZERO PUSH2 0x11F8 JUMPI PUSH1 0x40 MLOAD PUSH32 0x8C379A000000000000000000000000000000000000000000000000000000000 DUP2 MSTORE PUSH1 0x4 ADD DUP1 DUP1 PUSH1 0x20 ADD DUP3 DUP2 SUB DUP3 MSTORE PUSH1 0xB DUP2 MSTORE PUSH1 0x20 ADD DUP1 PUSH32 0x626164207769746E657373000000000000000000000000000000000000000000 DUP2 MSTORE POP PUSH1 0x20 ADD SWAP2 POP POP PUSH1 0x40 MLOAD DUP1 SWAP2 SUB SWAP1 REVERT JUMPDEST PUSH1 0x0 DUP1 PUSH1 0x2 DUP7 PUSH1 0x1 PUSH1 0x2 DUP2 LT PUSH2 0x120A JUMPI INVALID JUMPDEST PUSH1 0x20 MUL ADD MLOAD DUP2 PUSH2 0x1216 JUMPI INVALID JUMPDEST MOD EQ PUSH2 0x1223 JUMPI PUSH1 0x1C PUSH2 0x1226 JUMP JUMPDEST PUSH1 0x1B JUMPDEST SWAP1 POP PUSH1 0x0 PUSH32 0xFFFFFFFFFFFFFFFFFFFFFFFFFFFFFFFEBAAEDCE6AF48A03BBFD25E8CD0364141 DUP1 PUSH2 0x1252 JUMPI INVALID JUMPDEST DUP6 DUP8 PUSH1 0x0 PUSH1 0x2 DUP2 LT PUSH2 0x1260 JUMPI INVALID JUMPDEST PUSH1 0x20 MUL ADD MLOAD MULMOD PUSH32 0xFFFFFFFFFFFFFFFFFFFFFFFFFFFFFFFEBAAEDCE6AF48A03BBFD25E8CD0364141 SUB PUSH1 0x0 SHL SWAP1 POP PUSH1 0x0 PUSH32 0xFFFFFFFFFFFFFFFFFFFFFFFFFFFFFFFEBAAEDCE6AF48A03BBFD25E8CD0364141 DUP1 PUSH2 0x12B7 JUMPI INVALID JUMPDEST DUP8 PUSH1 0x0 PUSH1 0x2 DUP2 LT PUSH2 0x12C4 JUMPI INVALID JUMPDEST PUSH1 0x20 MUL ADD MLOAD DUP10 MULMOD PUSH1 0x0 SHL SWAP1 POP PUSH1 0x0 PUSH1 0x1 DUP4 DUP6 DUP11 PUSH1 0x0 PUSH1 0x2 DUP2 LT PUSH2 0x12E3 JUMPI INVALID JUMPDEST PUSH1 0x20 MUL ADD MLOAD PUSH1 0x0 SHL DUP6 PUSH1 0x40 MLOAD PUSH1 0x0 DUP2 MSTORE PUSH1 0x20 ADD PUSH1 0x40 MSTORE PUSH1 0x40 MLOAD DUP1 DUP6 DUP2 MSTORE PUSH1 0x20 ADD DUP5 PUSH1 0xFF AND PUSH1 0xFF AND DUP2 MSTORE PUSH1 0x20 ADD DUP4 DUP2 MSTORE PUSH1 0x20 ADD DUP3 DUP2 MSTORE PUSH1 0x20 ADD SWAP5 POP POP POP POP POP PUSH1 0x20 PUSH1 0x40 MLOAD PUSH1 0x20 DUP2 SUB SWAP1 DUP1 DUP5 SUB SWAP1 DUP6 GAS STATICCALL ISZERO DUP1 ISZERO PUSH2 0x1343 JUMPI RETURNDATASIZE PUSH1 0x0 DUP1 RETURNDATACOPY RETURNDATASIZE PUSH1 0x0 REVERT JUMPDEST POP POP POP PUSH1 0x20 PUSH1 0x40 MLOAD SUB MLOAD SWAP1 POP DUP6 PUSH20 0xFFFFFFFFFFFFFFFFFFFFFFFFFFFFFFFFFFFFFFFF AND DUP2 PUSH20 0xFFFFFFFFFFFFFFFFFFFFFFFFFFFFFFFFFFFFFFFF AND EQ SWAP5 POP POP POP POP POP SWAP5 SWAP4 POP POP POP POP JUMP JUMPDEST PUSH1 0x0 DUP1 PUSH1 0x0 DUP1 PUSH1 0x0 PUSH1 0x1 DUP1 SWAP2 POP SWAP2 POP PUSH1 0x0 PUSH32 0xFFFFFFFFFFFFFFFFFFFFFFFFFFFFFFFFFFFFFFFFFFFFFFFFFFFFFFFEFFFFFC2F DUP1 PUSH2 0x13C5 JUMPI INVALID JUMPDEST DUP10 PUSH32 0xFFFFFFFFFFFFFFFFFFFFFFFFFFFFFFFFFFFFFFFFFFFFFFFFFFFFFFFEFFFFFC2F SUB DUP9 ADDMOD SWAP1 POP PUSH1 0x0 PUSH32 0xFFFFFFFFFFFFFFFFFFFFFFFFFFFFFFFFFFFFFFFFFFFFFFFFFFFFFFFEFFFFFC2F DUP1 PUSH2 0x1416 JUMPI INVALID JUMPDEST DUP12 PUSH32 0xFFFFFFFFFFFFFFFFFFFFFFFFFFFFFFFFFFFFFFFFFFFFFFFFFFFFFFFEFFFFFC2F SUB DUP11 ADDMOD SWAP1 POP PUSH1 0x0 PUSH2 0x144B DUP4 DUP4 DUP6 DUP6 PUSH2 0x1FC9 JUMP JUMPDEST DUP1 SWAP3 POP DUP2 SWAP10 POP POP POP PUSH2 0x145F DUP9 DUP3 DUP15 DUP9 PUSH2 0x2033 JUMP JUMPDEST DUP1 SWAP3 POP DUP2 SWAP10 POP POP POP PUSH2 0x1473 DUP9 DUP3 DUP13 DUP8 PUSH2 0x2033 JUMP JUMPDEST DUP1 SWAP3 POP DUP2 SWAP10 POP POP POP PUSH1 0x0 PUSH2 0x1489 DUP14 DUP8 DUP12 DUP6 PUSH2 0x2033 JUMP JUMPDEST DUP1 SWAP3 POP DUP2 SWAP10 POP POP POP PUSH2 0x149D DUP9 DUP3 DUP7 DUP7 PUSH2 0x1FC9 JUMP JUMPDEST DUP1 SWAP3 POP DUP2 SWAP10 POP POP POP PUSH2 0x14B1 DUP9 DUP3 DUP15 DUP10 PUSH2 0x2033 JUMP JUMPDEST DUP1 SWAP3 POP DUP2 SWAP10 POP POP POP DUP1 DUP3 EQ PUSH2 0x154C JUMPI PUSH32 0xFFFFFFFFFFFFFFFFFFFFFFFFFFFFFFFFFFFFFFFFFFFFFFFFFFFFFFFEFFFFFC2F DUP1 PUSH2 0x14E8 JUMPI INVALID JUMPDEST DUP2 DUP11 MULMOD SWAP9 POP PUSH32 0xFFFFFFFFFFFFFFFFFFFFFFFFFFFFFFFFFFFFFFFFFFFFFFFFFFFFFFFEFFFFFC2F DUP1 PUSH2 0x1515 JUMPI INVALID JUMPDEST DUP3 DUP10 MULMOD SWAP8 POP PUSH32 0xFFFFFFFFFFFFFFFFFFFFFFFFFFFFFFFFFFFFFFFFFFFFFFFFFFFFFFFEFFFFFC2F DUP1 PUSH2 0x1542 JUMPI INVALID JUMPDEST DUP2 DUP4 MULMOD SWAP7 POP PUSH2 0x1550 JUMP JUMPDEST DUP2 SWAP7 POP JUMPDEST POP POP POP POP POP POP SWAP5 POP SWAP5 POP SWAP5 SWAP2 POP POP JUMP JUMPDEST PUSH1 0x0 DUP1 PUSH32 0xFFFFFFFFFFFFFFFFFFFFFFFFFFFFFFFFFFFFFFFFFFFFFFFFFFFFFFFEFFFFFC2F DUP1 PUSH2 0x158B JUMPI INVALID JUMPDEST PUSH32 0xFFFFFFFFFFFFFFFFFFFFFFFFFFFFFFFFFFFFFFFFFFFFFFFFFFFFFFFEFFFFFC2F DUP1 PUSH2 0x15B3 JUMPI INVALID JUMPDEST DUP5 DUP6 MULMOD DUP5 MULMOD SWAP1 POP PUSH32 0xFFFFFFFFFFFFFFFFFFFFFFFFFFFFFFFFFFFFFFFFFFFFFFFFFFFFFFFEFFFFFC2F DUP1 PUSH2 0x15E2 JUMPI INVALID JUMPDEST PUSH1 0x7 DUP3 ADDMOD SWAP2 POP POP SWAP2 SWAP1 POP JUMP JUMPDEST PUSH1 0x0 DUP1 DUP4 EQ ISZERO PUSH2 0x15FD JUMPI PUSH1 0x0 DUP1 REVERT JUMPDEST PUSH1 0x0 DUP5 PUSH1 0x0 PUSH1 0x2 DUP2 LT PUSH2 0x160C JUMPI INVALID JUMPDEST PUSH1 0x20 MUL ADD MLOAD SWAP1 POP PUSH1 0x0 DUP1 PUSH1 0x2 DUP8 PUSH1 0x1 PUSH1 0x2 DUP2 LT PUSH2 0x1625 JUMPI INVALID JUMPDEST PUSH1 0x20 MUL ADD MLOAD DUP2 PUSH2 0x1631 JUMPI INVALID JUMPDEST MOD EQ PUSH2 0x163E JUMPI PUSH1 0x1C PUSH2 0x1641 JUMP JUMPDEST PUSH1 0x1B JUMPDEST SWAP1 POP PUSH1 0x0 PUSH32 0xFFFFFFFFFFFFFFFFFFFFFFFFFFFFFFFEBAAEDCE6AF48A03BBFD25E8CD0364141 DUP1 PUSH2 0x166D JUMPI INVALID JUMPDEST DUP4 DUP8 MULMOD PUSH1 0x0 SHL SWAP1 POP PUSH1 0x0 PUSH1 0x1 PUSH1 0x0 DUP1 SHL DUP5 DUP7 PUSH1 0x0 SHL DUP6 PUSH1 0x40 MLOAD PUSH1 0x0 DUP2 MSTORE PUSH1 0x20 ADD PUSH1 0x40 MSTORE PUSH1 0x40 MLOAD DUP1 DUP6 DUP2 MSTORE PUSH1 0x20 ADD DUP5 PUSH1 0xFF AND PUSH1 0xFF AND DUP2 MSTORE PUSH1 0x20 ADD DUP4 DUP2 MSTORE PUSH1 0x20 ADD DUP3 DUP2 MSTORE PUSH1 0x20 ADD SWAP5 POP POP POP POP POP PUSH1 0x20 PUSH1 0x40 MLOAD PUSH1 0x20 DUP2 SUB SWAP1 DUP1 DUP5 SUB SWAP1 DUP6 GAS STATICCALL ISZERO DUP1 ISZERO PUSH2 0x16DA JUMPI RETURNDATASIZE PUSH1 0x0 DUP1 RETURNDATACOPY RETURNDATASIZE PUSH1 0x0 REVERT JUMPDEST POP POP POP PUSH1 0x20 PUSH1 0x40 MLOAD SUB MLOAD SWAP1 POP PUSH1 0x0 DUP7 PUSH1 0x40 MLOAD PUSH1 0x20 ADD DUP1 DUP3 PUSH1 0x2 PUSH1 0x20 MUL DUP1 DUP4 DUP4 PUSH1 0x0 JUMPDEST DUP4 DUP2 LT ISZERO PUSH2 0x1717 JUMPI DUP1 DUP3 ADD MLOAD DUP2 DUP5 ADD MSTORE PUSH1 0x20 DUP2 ADD SWAP1 POP PUSH2 0x16FC JUMP JUMPDEST POP POP POP POP SWAP1 POP ADD SWAP2 POP POP PUSH1 0x40 MLOAD PUSH1 0x20 DUP2 DUP4 SUB SUB DUP2 MSTORE SWAP1 PUSH1 0x40 MSTORE DUP1 MLOAD SWAP1 PUSH1 0x20 ADD KECCAK256 PUSH1 0x0 SHR SWAP1 POP DUP1 PUSH20 0xFFFFFFFFFFFFFFFFFFFFFFFFFFFFFFFFFFFFFFFF AND DUP3 PUSH20 0xFFFFFFFFFFFFFFFFFFFFFFFFFFFFFFFFFFFFFFFF AND EQ SWAP6 POP POP POP POP POP POP SWAP4 SWAP3 POP POP POP JUMP JUMPDEST PUSH1 0x0 DUP2 DUP1 MLOAD SWAP1 PUSH1 0x20 ADD KECCAK256 PUSH1 0x0 SHR SWAP1 POP JUMPDEST PUSH32 0xFFFFFFFFFFFFFFFFFFFFFFFFFFFFFFFFFFFFFFFFFFFFFFFFFFFFFFFEFFFFFC2F DUP2 LT PUSH2 0x17E1 JUMPI DUP1 PUSH1 0x40 MLOAD PUSH1 0x20 ADD DUP1 DUP3 DUP2 MSTORE PUSH1 0x20 ADD SWAP2 POP POP PUSH1 0x40 MLOAD PUSH1 0x20 DUP2 DUP4 SUB SUB DUP2 MSTORE SWAP1 PUSH1 0x40 MSTORE DUP1 MLOAD SWAP1 PUSH1 0x20 ADD KECCAK256 PUSH1 0x0 SHR SWAP1 POP PUSH2 0x1789 JUMP JUMPDEST SWAP2 SWAP1 POP JUMP JUMPDEST PUSH1 0x0 PUSH2 0x1A0 DUP3 MLOAD EQ PUSH2 0x1860 JUMPI PUSH1 0x40 MLOAD PUSH32 0x8C379A000000000000000000000000000000000000000000000000000000000 DUP2 MSTORE PUSH1 0x4 ADD DUP1 DUP1 PUSH1 0x20 ADD DUP3 DUP2 SUB DUP3 MSTORE PUSH1 0x12 DUP2 MSTORE PUSH1 0x20 ADD DUP1 PUSH32 0x77726F6E672070726F6F66206C656E6774680000000000000000000000000000 DUP2 MSTORE POP PUSH1 0x20 ADD SWAP2 POP POP PUSH1 0x40 MLOAD DUP1 SWAP2 SUB SWAP1 REVERT JUMPDEST PUSH2 0x1868 PUSH2 0x211F JUMP JUMPDEST PUSH2 0x1870 PUSH2 0x211F JUMP JUMPDEST PUSH2 0x1878 PUSH2 0x2185 JUMP JUMPDEST PUSH1 0x0 PUSH2 0x1882 PUSH2 0x211F JUMP JUMPDEST PUSH2 0x188A PUSH2 0x211F JUMP JUMPDEST PUSH1 0x0 DUP9 DUP1 PUSH1 0x20 ADD SWAP1 MLOAD PUSH2 0x1A0 DUP2 LT ISZERO PUSH2 0x18A2 JUMPI PUSH1 0x0 DUP1 REVERT JUMPDEST DUP2 ADD SWAP1 DUP1 SWAP2 SWAP1 DUP3 PUSH1 0x40 ADD SWAP2 SWAP1 DUP3 PUSH1 0x40 ADD SWAP2 SWAP1 DUP3 PUSH1 0x60 ADD DUP1 MLOAD SWAP1 PUSH1 0x20 ADD SWAP1 SWAP3 SWAP2 SWAP1 SWAP2 SWAP1 DUP3 PUSH1 0x40 ADD SWAP2 SWAP1 DUP3 PUSH1 0x40 ADD DUP1 MLOAD SWAP1 PUSH1 0x20 ADD SWAP1 SWAP3 SWAP2 SWAP1 POP POP POP DUP7 SWAP7 POP DUP6 SWAP6 POP DUP5 SWAP5 POP DUP4 SWAP4 POP DUP3 SWAP3 POP DUP2 SWAP2 POP DUP1 SWAP8 POP DUP2 SWAP9 POP DUP3 SWAP10 POP DUP4 SWAP11 POP DUP5 SWAP12 POP DUP6 SWAP13 POP DUP7 SWAP14 POP POP POP POP POP POP POP POP PUSH2 0x194D DUP8 DUP8 DUP8 PUSH1 0x0 PUSH1 0x3 DUP2 LT PUSH2 0x191B JUMPI INVALID JUMPDEST PUSH1 0x20 MUL ADD MLOAD DUP9 PUSH1 0x1 PUSH1 0x3 DUP2 LT PUSH2 0x192D JUMPI INVALID JUMPDEST PUSH1 0x20 MUL ADD MLOAD DUP10 PUSH1 0x2 PUSH1 0x3 DUP2 LT PUSH2 0x193F JUMPI INVALID JUMPDEST PUSH1 0x20 MUL ADD MLOAD DUP10 DUP10 DUP10 DUP10 PUSH2 0x19B6 JUMP JUMPDEST PUSH1 0x3 DUP7 PUSH1 0x40 MLOAD PUSH1 0x20 ADD DUP1 DUP4 DUP2 MSTORE PUSH1 0x20 ADD DUP3 PUSH1 0x2 PUSH1 0x20 MUL DUP1 DUP4 DUP4 PUSH1 0x0 JUMPDEST DUP4 DUP2 LT ISZERO PUSH2 0x1984 JUMPI DUP1 DUP3 ADD MLOAD DUP2 DUP5 ADD MSTORE PUSH1 0x20 DUP2 ADD SWAP1 POP PUSH2 0x1969 JUMP JUMPDEST POP POP POP POP SWAP1 POP ADD SWAP3 POP POP POP PUSH1 0x40 MLOAD PUSH1 0x20 DUP2 DUP4 SUB SUB DUP2 MSTORE SWAP1 PUSH1 0x40 MSTORE DUP1 MLOAD SWAP1 PUSH1 0x20 ADD KECCAK256 PUSH1 0x0 SHR SWAP8 POP POP POP POP POP POP POP POP SWAP2 SWAP1 POP JUMP JUMPDEST PUSH2 0x19BF DUP10 PUSH2 0x1F58 JUMP JUMPDEST PUSH2 0x1A31 JUMPI PUSH1 0x40 MLOAD PUSH32 0x8C379A000000000000000000000000000000000000000000000000000000000 DUP2 MSTORE PUSH1 0x4 ADD DUP1 DUP1 PUSH1 0x20 ADD DUP3 DUP2 SUB DUP3 MSTORE PUSH1 0x1A DUP2 MSTORE PUSH1 0x20 ADD DUP1 PUSH32 0x7075626C6963206B6579206973206E6F74206F6E206375727665000000000000 DUP2 MSTORE POP PUSH1 0x20 ADD SWAP2 POP POP PUSH1 0x40 MLOAD DUP1 SWAP2 SUB SWAP1 REVERT JUMPDEST PUSH2 0x1A3A DUP9 PUSH2 0x1F58 JUMP JUMPDEST PUSH2 0x1AAC JUMPI PUSH1 0x40 MLOAD PUSH32 0x8C379A000000000000000000000000000000000000000000000000000000000 DUP2 MSTORE PUSH1 0x4 ADD DUP1 DUP1 PUSH1 0x20 ADD DUP3 DUP2 SUB DUP3 MSTORE PUSH1 0x15 DUP2 MSTORE PUSH1 0x20 ADD DUP1 PUSH32 0x67616D6D61206973206E6F74206F6E2063757276650000000000000000000000 DUP2 MSTORE POP PUSH1 0x20 ADD SWAP2 POP POP PUSH1 0x40 MLOAD DUP1 SWAP2 SUB SWAP1 REVERT JUMPDEST PUSH2 0x1AB5 DUP4 PUSH2 0x1F58 JUMP JUMPDEST PUSH2 0x1B27 JUMPI PUSH1 0x40 MLOAD PUSH32 0x8C379A000000000000000000000000000000000000000000000000000000000 DUP2 MSTORE PUSH1 0x4 ADD DUP1 DUP1 PUSH1 0x20 ADD DUP3 DUP2 SUB DUP3 MSTORE PUSH1 0x1D DUP2 MSTORE PUSH1 0x20 ADD DUP1 PUSH32 0x6347616D6D615769746E657373206973206E6F74206F6E206375727665000000 DUP2 MSTORE POP PUSH1 0x20 ADD SWAP2 POP POP PUSH1 0x40 MLOAD DUP1 SWAP2 SUB SWAP1 REVERT JUMPDEST PUSH2 0x1B30 DUP3 PUSH2 0x1F58 JUMP JUMPDEST PUSH2 0x1BA2 JUMPI PUSH1 0x40 MLOAD PUSH32 0x8C379A000000000000000000000000000000000000000000000000000000000 DUP2 MSTORE PUSH1 0x4 ADD DUP1 DUP1 PUSH1 0x20 ADD DUP3 DUP2 SUB DUP3 MSTORE PUSH1 0x1C DUP2 MSTORE PUSH1 0x20 ADD DUP1 PUSH32 0x73486173685769746E657373206973206E6F74206F6E20637572766500000000 DUP2 MSTORE POP PUSH1 0x20 ADD SWAP2 POP POP PUSH1 0x40 MLOAD DUP1 SWAP2 SUB SWAP1 REVERT JUMPDEST PUSH2 0x1BAE DUP8 DUP11 DUP9 DUP8 PUSH2 0x1154 JUMP JUMPDEST PUSH2 0x1C20 JUMPI PUSH1 0x40 MLOAD PUSH32 0x8C379A000000000000000000000000000000000000000000000000000000000 DUP2 MSTORE PUSH1 0x4 ADD DUP1 DUP1 PUSH1 0x20 ADD DUP3 DUP2 SUB DUP3 MSTORE PUSH1 0x1A DUP2 MSTORE PUSH1 0x20 ADD DUP1 PUSH32 0x6164647228632A706B2B732A6729E289A05F755769746E657373000000000000 DUP2 MSTORE POP PUSH1 0x20 ADD SWAP2 POP POP PUSH1 0x40 MLOAD DUP1 SWAP2 SUB SWAP1 REVERT JUMPDEST PUSH2 0x1C28 PUSH2 0x211F JUMP JUMPDEST PUSH2 0x1C32 DUP11 DUP8 PUSH2 0xDCA JUMP JUMPDEST SWAP1 POP PUSH2 0x1C3C PUSH2 0x211F JUMP JUMPDEST PUSH2 0x1C4B DUP10 DUP12 DUP8 DUP12 DUP7 DUP10 DUP10 PUSH2 0x1CE1 JUMP JUMPDEST SWAP1 POP PUSH1 0x0 PUSH2 0x1C5C DUP4 DUP14 DUP14 DUP11 DUP7 PUSH2 0xFEB JUMP JUMPDEST SWAP1 POP DUP1 DUP11 EQ PUSH2 0x1CD3 JUMPI PUSH1 0x40 MLOAD PUSH32 0x8C379A000000000000000000000000000000000000000000000000000000000 DUP2 MSTORE PUSH1 0x4 ADD DUP1 DUP1 PUSH1 0x20 ADD DUP3 DUP2 SUB DUP3 MSTORE PUSH1 0xD DUP2 MSTORE PUSH1 0x20 ADD DUP1 PUSH32 0x696E76616C69642070726F6F6600000000000000000000000000000000000000 DUP2 MSTORE POP PUSH1 0x20 ADD SWAP2 POP POP PUSH1 0x40 MLOAD DUP1 SWAP2 SUB SWAP1 REVERT JUMPDEST POP POP POP POP POP POP POP POP POP POP POP POP JUMP JUMPDEST PUSH2 0x1CE9 PUSH2 0x211F JUMP JUMPDEST PUSH1 0x0 PUSH32 0xFFFFFFFFFFFFFFFFFFFFFFFFFFFFFFFFFFFFFFFFFFFFFFFFFFFFFFFEFFFFFC2F DUP5 PUSH1 0x0 PUSH1 0x2 DUP2 LT PUSH2 0x1D19 JUMPI INVALID JUMPDEST PUSH1 0x20 MUL ADD MLOAD DUP9 PUSH1 0x0 PUSH1 0x2 DUP2 LT PUSH2 0x1D2B JUMPI INVALID JUMPDEST PUSH1 0x20 MUL ADD MLOAD SUB DUP2 PUSH2 0x1D38 JUMPI INVALID JUMPDEST MOD EQ ISZERO PUSH2 0x1DAD JUMPI PUSH1 0x40 MLOAD PUSH32 0x8C379A000000000000000000000000000000000000000000000000000000000 DUP2 MSTORE PUSH1 0x4 ADD DUP1 DUP1 PUSH1 0x20 ADD DUP3 DUP2 SUB DUP3 MSTORE PUSH1 0x1E DUP2 MSTORE PUSH1 0x20 ADD DUP1 PUSH32 0x706F696E747320696E2073756D206D7573742062652064697374696E63740000 DUP2 MSTORE POP PUSH1 0x20 ADD SWAP2 POP POP PUSH1 0x40 MLOAD DUP1 SWAP2 SUB SWAP1 REVERT JUMPDEST PUSH2 0x1DB8 DUP8 DUP10 DUP9 PUSH2 0x15EE JUMP JUMPDEST PUSH2 0x1E0D JUMPI PUSH1 0x40 MLOAD PUSH32 0x8C379A000000000000000000000000000000000000000000000000000000000 DUP2 MSTORE PUSH1 0x4 ADD DUP1 DUP1 PUSH1 0x20 ADD DUP3 DUP2 SUB DUP3 MSTORE PUSH1 0x21 DUP2 MSTORE PUSH1 0x20 ADD DUP1 PUSH2 0x21A8 PUSH1 0x21 SWAP2 CODECOPY PUSH1 0x40 ADD SWAP2 POP POP PUSH1 0x40 MLOAD DUP1 SWAP2 SUB SWAP1 REVERT JUMPDEST PUSH2 0x1E18 DUP5 DUP7 DUP6 PUSH2 0x15EE JUMP JUMPDEST PUSH2 0x1E6D JUMPI PUSH1 0x40 MLOAD PUSH32 0x8C379A000000000000000000000000000000000000000000000000000000000 DUP2 MSTORE PUSH1 0x4 ADD DUP1 DUP1 PUSH1 0x20 ADD DUP3 DUP2 SUB DUP3 MSTORE PUSH1 0x22 DUP2 MSTORE PUSH1 0x20 ADD DUP1 PUSH2 0x21C9 PUSH1 0x22 SWAP2 CODECOPY PUSH1 0x40 ADD SWAP2 POP POP PUSH1 0x40 MLOAD DUP1 SWAP2 SUB SWAP1 REVERT JUMPDEST PUSH2 0x1E78 DUP7 DUP5 DUP5 PUSH2 0xC4C JUMP JUMPDEST SWAP1 POP SWAP8 SWAP7 POP POP POP POP POP POP POP JUMP JUMPDEST PUSH2 0x1E8D PUSH2 0x211F JUMP JUMPDEST PUSH2 0x1E96 DUP3 PUSH2 0x1779 JUMP JUMPDEST DUP2 PUSH1 0x0 PUSH1 0x2 DUP2 LT PUSH2 0x1EA3 JUMPI INVALID JUMPDEST PUSH1 0x20 MUL ADD DUP2 DUP2 MSTORE POP POP PUSH2 0x1ECE PUSH2 0x1EC9 DUP3 PUSH1 0x0 PUSH1 0x2 DUP2 LT PUSH2 0x1EBF JUMPI INVALID JUMPDEST PUSH1 0x20 MUL ADD MLOAD PUSH2 0x1560 JUMP JUMPDEST PUSH2 0x111A JUMP JUMPDEST DUP2 PUSH1 0x1 PUSH1 0x2 DUP2 LT PUSH2 0x1EDB JUMPI INVALID JUMPDEST PUSH1 0x20 MUL ADD DUP2 DUP2 MSTORE POP POP PUSH1 0x1 PUSH1 0x2 DUP3 PUSH1 0x1 PUSH1 0x2 DUP2 LT PUSH2 0x1EF5 JUMPI INVALID JUMPDEST PUSH1 0x20 MUL ADD MLOAD DUP2 PUSH2 0x1F01 JUMPI INVALID JUMPDEST MOD EQ ISZERO PUSH2 0x1F53 JUMPI DUP1 PUSH1 0x1 PUSH1 0x2 DUP2 LT PUSH2 0x1F15 JUMPI INVALID JUMPDEST PUSH1 0x20 MUL ADD MLOAD PUSH32 0xFFFFFFFFFFFFFFFFFFFFFFFFFFFFFFFFFFFFFFFFFFFFFFFFFFFFFFFEFFFFFC2F SUB DUP2 PUSH1 0x1 PUSH1 0x2 DUP2 LT PUSH2 0x1F49 JUMPI INVALID JUMPDEST PUSH1 0x20 MUL ADD DUP2 DUP2 MSTORE POP POP JUMPDEST SWAP2 SWAP1 POP JUMP JUMPDEST PUSH1 0x0 PUSH32 0xFFFFFFFFFFFFFFFFFFFFFFFFFFFFFFFFFFFFFFFFFFFFFFFFFFFFFFFEFFFFFC2F DUP1 PUSH2 0x1F82 JUMPI INVALID JUMPDEST DUP3 PUSH1 0x1 PUSH1 0x2 DUP2 LT PUSH2 0x1F8F JUMPI INVALID JUMPDEST PUSH1 0x20 MUL ADD MLOAD DUP4 PUSH1 0x1 PUSH1 0x2 DUP2 LT PUSH2 0x1FA1 JUMPI INVALID JUMPDEST PUSH1 0x20 MUL ADD MLOAD MULMOD PUSH2 0x1FC1 DUP4 PUSH1 0x0 PUSH1 0x2 DUP2 LT PUSH2 0x1FB7 JUMPI INVALID JUMPDEST PUSH1 0x20 MUL ADD MLOAD PUSH2 0x1560 JUMP JUMPDEST EQ SWAP1 POP SWAP2 SWAP1 POP JUMP JUMPDEST PUSH1 0x0 DUP1 PUSH32 0xFFFFFFFFFFFFFFFFFFFFFFFFFFFFFFFFFFFFFFFFFFFFFFFFFFFFFFFEFFFFFC2F DUP1 PUSH2 0x1FF4 JUMPI INVALID JUMPDEST DUP5 DUP8 MULMOD PUSH32 0xFFFFFFFFFFFFFFFFFFFFFFFFFFFFFFFFFFFFFFFFFFFFFFFFFFFFFFFEFFFFFC2F DUP1 PUSH2 0x201F JUMPI INVALID JUMPDEST DUP5 DUP8 MULMOD DUP1 SWAP3 POP DUP2 SWAP4 POP POP POP SWAP5 POP SWAP5 SWAP3 POP POP POP JUMP JUMPDEST PUSH1 0x0 DUP1 PUSH1 0x0 PUSH32 0xFFFFFFFFFFFFFFFFFFFFFFFFFFFFFFFFFFFFFFFFFFFFFFFFFFFFFFFEFFFFFC2F DUP1 PUSH2 0x2060 JUMPI INVALID JUMPDEST DUP8 DUP6 MULMOD SWAP1 POP PUSH1 0x0 PUSH32 0xFFFFFFFFFFFFFFFFFFFFFFFFFFFFFFFFFFFFFFFFFFFFFFFFFFFFFFFEFFFFFC2F DUP1 PUSH2 0x208F JUMPI INVALID JUMPDEST DUP8 DUP8 PUSH32 0xFFFFFFFFFFFFFFFFFFFFFFFFFFFFFFFFFFFFFFFFFFFFFFFFFFFFFFFEFFFFFC2F SUB MULMOD SWAP1 POP PUSH32 0xFFFFFFFFFFFFFFFFFFFFFFFFFFFFFFFFFFFFFFFFFFFFFFFFFFFFFFFEFFFFFC2F DUP1 PUSH2 0x20DE JUMPI INVALID JUMPDEST DUP2 DUP4 ADDMOD PUSH32 0xFFFFFFFFFFFFFFFFFFFFFFFFFFFFFFFFFFFFFFFFFFFFFFFFFFFFFFFEFFFFFC2F DUP1 PUSH2 0x2109 JUMPI INVALID JUMPDEST DUP7 DUP10 MULMOD DUP1 SWAP5 POP DUP2 SWAP6 POP POP POP POP POP SWAP5 POP SWAP5 SWAP3 POP POP POP JUMP JUMPDEST PUSH1 0x40 MLOAD DUP1 PUSH1 0x40 ADD PUSH1 0x40 MSTORE DUP1 PUSH1 0x2 SWAP1 PUSH1 0x20 DUP3 MUL DUP1 CODESIZE DUP4 CODECOPY DUP1 DUP3 ADD SWAP2 POP POP SWAP1 POP POP SWAP1 JUMP JUMPDEST PUSH1 0x40 MLOAD DUP1 PUSH1 0xC0 ADD PUSH1 0x40 MSTORE DUP1 PUSH1 0x6 SWAP1 PUSH1 0x20 DUP3 MUL DUP1 CODESIZE DUP4 CODECOPY DUP1 DUP3 ADD SWAP2 POP POP SWAP1 POP POP SWAP1 JUMP JUMPDEST PUSH1 0x40 MLOAD DUP1 PUSH1 0x20 ADD PUSH1 0x40 MSTORE DUP1 PUSH1 0x1 SWAP1 PUSH1 0x20 DUP3 MUL DUP1 CODESIZE DUP4 CODECOPY DUP1 DUP3 ADD SWAP2 POP POP SWAP1 POP POP SWAP1 JUMP JUMPDEST PUSH1 0x40 MLOAD DUP1 PUSH1 0x60 ADD PUSH1 0x40 MSTORE DUP1 PUSH1 0x3 SWAP1 PUSH1 0x20 DUP3 MUL DUP1 CODESIZE DUP4 CODECOPY DUP1 DUP3 ADD SWAP2 POP POP SWAP1 POP POP SWAP1 JUMP INVALID CHAINID PUSH10 0x727374206D756C746970 PUSH13 0x69636174696F6E20636865636B KECCAK256 PUSH7 0x61696C65645365 PUSH4 0x6F6E6420 PUSH14 0x756C7469706C69636174696F6E20 PUSH4 0x6865636B KECCAK256 PUSH7 0x61696C6564A264 PUSH10 0x7066735822122059895A 0xE6 DUP13 DUP4 0xC1 PUSH5 0x3D4051DAF2 0xCE PUSH21 0x2530F14B7DC90D7BB99FE8210F7273A72664736F6C PUSH4 0x43000602 STOP CALLER "
			},
			"methodIdentifiers": {
				"affineECAdd_(uint256[2],uint256[2],uint256)": "244f896d",
				"bigModExp_(uint256,uint256)": "5de60042",
				"ecmulVerify_(uint256[2],uint256,uint256[2])": "aa7b2fbb",
				"fieldHash_(bytes)": "b481e260",
				"hashToCurve_(uint256[2],uint256)": "35452450",
				"linearCombination_(uint256,uint256[2],uint256[2],uint256,uint256[2],uint256[2],uint256)": "fe54f2a2",
				"projectiveECAdd_(uint256,uint256,uint256,uint256)": "95e6ee92",
				"randomValueFromVRFProof_(bytes)": "cefda0c5",
				"scalarFromCurvePoints_(uint256[2],uint256[2],uint256[2],address,uint256[2])": "7f8f50a8",
				"squareRoot_(uint256)": "8af046ea",
				"verifyLinearCombinationWithGenerator_(uint256,uint256[2],uint256,address)": "91d5f691",
				"verifyVRFProof_(uint256[2],uint256[2],uint256,uint256,uint256,address,uint256[2],uint256[2],uint256)": "ef3b10ec",
				"ySquared_(uint256)": "9d6f0337"
			}
		},
		"userdoc": {
			"methods": {},
			"notice": "***********************************************************************Testing harness for VRF.sol, exposing its internal methods. Not tobe used for production."
		}
	},
	"sourceTreeHashHex": "0xfcabd1c4163106b3b20fc4b67b3308e3cf06c8ac6493b8427680f094e64284d3",
	"compiler": {
		"name": "solc",
		"version": "soljson-v0.6.2+commit.bacdbe57.js",
		"settings": {
			"optimizer": {
				"enabled": false
			},
			"outputSelection": {
				"*": {
					"*": [
						"abi",
						"devdoc",
						"userdoc",
						"evm.bytecode.object",
						"evm.bytecode.sourceMap",
						"evm.deployedBytecode.object",
						"evm.deployedBytecode.sourceMap",
						"evm.methodIdentifiers",
						"metadata"
					]
				}
			},
			"remappings": []
		}
	},
	"chains": {}
}